:1010000000000420E112000009130000715B0000E1
:101010000D1300000F13000011130000000000006A
:10102000000000000000000000000000131300009A
:10103000151300000000000017130000F9E3000082
:10104000B5D000001B130000C5D000001B1300002A
:101050001B1300001B13000071C900001B130000CC
:101060001B1300001B1300001B1300001B130000C8
:101070001B1300001B1300001B1300001B130000B8
:101080001B130000BD2900001B1300001B130000F0
:101090005D2A00001B1300001B1300001B1300003F
:1010A0001B1300001B1300001B1300001B13000088
:1010B0001B1300001B1300000000000000000000D4
:1010C0001B1300001B1300001B1300001B13000068
:1010D0001B1300001B1300001B130000FDB60000D3
:1010E0001B1300001B130000D59E01000000000030
:1010F000000000001B130000000000001B13000094
:1011000000000000000000000000000000000000DF
:1011100000000000000000000000000000000000CF
:1011200000000000000000000000000000000000BF
:1011300000000000000000000000000000000000AF
:10114000000000000000000000000000000000009F
:10115000000000000000000000000000000000008F
:10116000000000000000000000000000000000007F
:10117000000000000000000000000000000000006F
:10118000000000000000000000000000000000005F
:10119000000000000000000000000000000000004F
:1011A000000000000000000000000000000000003F
:1011B000000000000000000000000000000000002F
:1011C000000000000000000000000000000000001F
:1011D000000000000000000000000000000000000F
:1011E00000000000000000000000000000000000FF
:1011F00000000000000000000000000000000000EF
:1012000010B5054C237833B9044B13B10448AFF340
:1012100000800123237010BD780200200000000030
:101220009C3002000C4B43B10C480D4910B5AFF394
:1012300000800C48036823B910BD0A48036833B91D
:101240007047094B002BF7D0BDE810401847064BFC
:10125000002BF5D0184700BF000000009C300200B2
:101260007C0200204402002000000000154B002BEF
:1012700008BF134B9D46A3F5803A00218B460F46CD
:101280001348144A121A1CF09DFA0F4B002B00D081
:1012900098470E4B002B00D09847002000210400F7
:1012A0000D000D48002802D00C48AFF300801CF060
:1012B00005FA200029000DF0AFF81CF0EBF900BF93
:1012C00000000800000004200000000000000000F2
:1012D00078020020D8170120000000000000000064
:1012E0000649074A074B9B1A03DD043BC858D050F8
:1012F000FBDC0DF057FFFFF7B9FF000020310200C3
:101300000800002078020020FEE7FEE7FEE7FEE787
:10131000FEE7FEE7FEE7FEE7FEE7FEE7074B1B5CA6
:101320001F2B8ABF064A4FF0A04203F01F03D2F8DA
:101330000405D840C04300F0010070478CEA01006A
:1013400000030050074B1B5C1F2B86BF03F01F03DD
:1013500005494FF0A041012202FA03F3C1F80C3510
:10136000704700BF8CEA010000030050074B1B5C74
:101370001F2B86BF03F01F0305494FF0A041012238
:1013800002FA03F3C1F80835704700BF8CEA010088
:10139000000300504FF0A0434FF480004FF40001D1
:1013A0004FF08072C3F80805C3F80815C3F8082584
:1013B000704700BF4FF0A0434FF480004FF400018E
:1013C0004FF08072C3F80C05C3F80C15C3F80C2558
:1013D000704700BF0A4B195C1F298ABF09484FF0AC
:1013E000A04001F01F01D0F8043501228A4022EA12
:1013F00003011340C0F80815C0F80C35704700BF52
:101400008CEA010000030050122809D00C2809D0F2
:10141000182809D019280CBF03204FF0FF3070475F
:10142000002070470120704702207047C20730B487
:101430000ED483070AD54FF0A0430C22C3F84827E7
:10144000C3F83027C3F86027C3F8642730BC70475F
:101450004FF0A04303224FF480054FF400044FF0F7
:101460008071C3F85827C3F85C27C3F86027C3F816
:101470000855C3F80845C3F80815DAE7434B19784F
:10148000002900F081802DE9F04F8C4687B00024C0
:10149000012503E00134E4B2644560D23C4B27B23D
:1014A0001E6816F837E0AEF1200305FA03F9394B50
:1014B000CEF12001D3E9002325FA01F149EA01091F
:1014C00005FA0EF808EA020009EA0301014306EBF7
:1014D000C70BDFD02F4922EA080223EA090370462E
:1014E000C1E900230BF034FA16F837E0AEF1200220
:1014F00005FA02F201920199CEF12003C6B225FA53
:1015000003F3AEF12002194306FA02F30393224BD0
:101510000191D3E90023CDE9042305FA0EF30093EA
:10152000CEF12001039B26FA01F10B43039306FA47
:101530000EF30293DDE90467DDE9002316401F4046
:1015400032463B46DDE90267BB4208BFB24209D0E2
:101550000E4B013493F800C0E4B264459ED307B04B
:10156000BDE8F08FDBF80430002BF1D09BF80110C0
:10157000A1F10101B1FA81F14909091AB1FA81F128
:10158000490970469847E3E7704700BF940200207E
:10159000D0020020C8020020C00200202DE9F8433C
:1015A0000646204801F000FDD0B91F4F0123A6F1E7
:1015B000200103FA01F5C6F12002D7E9000123FA60
:1015C00002F2154303FA06F404EA000205EA0103F5
:1015D000134307D020EA040421EA0505C7E90045C2
:1015E000BDE8F88330460BF0B3F9104ED6E9008918
:1015F00098B148EA040849EA0509D7E900231443E9
:101600001D43C6E90089C7E90045094B054819682B
:101610000022BDE8F84301F077BC28EA040829EA73
:101620000509EAE79C020020C8020020C002002051
:1016300098020020042A01D8072070472DE9F041C4
:1016400082B00F46054616460BF01AF8002834D033
:101650001C4C1D4A1D4B1E481E49256017707C1EE0
:1016600000221E600023C0E90023C1E90023E4B288
:10167000EFB1DFF86C800027032601E0FF2C16D0C5
:1016800023B205EBC30215F8330093788DF806708A
:10169000424601A98DF804608DF805300AF0FAFF82
:1016A000013CE4B20028E9D002B0BDE8F0810A4A6A
:1016B0000A48002101F016FCF6E70AF08FFF002827
:1016C000C6D0F1E7D002002094020020980200204A
:1016D000C0020020C80200207D14000090EA010032
:1016E0009D15000070B5084D2B785BB1074E0024A6
:1016F0003368012113F834000BF0AEF82B78013475
:10170000A342F5D8002070BD94020020D002002032
:1017100000B585B000230390194601AA44F20100E8
:101720000193029300F004F805B05DF804FB00BFDC
:1017300072B6094B1B68DB0700D500BEBFF34F8FA5
:101740000649074BCA6802F4E0621343CB60BFF35B
:101750004F8F00BFFDE700BFF0ED00E000ED00E0BF
:101760000400FA05BAB1138899B10246014412F88F
:10177000010B5BBA9BB24340C3F30310434083EABF
:1017800003331BB2580100F4FF5043408A429BB21E
:10179000EDD1184670474FF6FF73E5E7033080B28E
:1017A00040F2FD33984201D90920704730B4134B01
:1017B0001C783CB95A891D892A44024492B2B2F578
:1017C000806F0FD31A7D12B1072030BC70479A8BFF
:1017D000DC8B2244024492B2B2F5806FF4D2012431
:1017E000254600E02546AA002A4403EB82030C802C
:1017F0005A89104458810020E7E700BF14030020F5
:10180000F0B5344C344D67886268BE00F31905EBBF
:10181000830383B0596801F58050002A56D053885D
:10182000033302EB8302904234D91368013331D081
:101830005388033302EB830398422BD34FF6FF7C8C
:10184000B2F804E0E64517D0B2F800E0BEF1000FB0
:1018500012D062605388214D2148AE882968033335
:1018600000259BB200959B0001EB860103252570A6
:1018700007F032FE03B0F0BD98420BD91A6801326E
:101880001A4607D0B3F802E00EF1030E03EB8E0305
:101890009842D5D2F31905EB8303DB686BB10F4D8A
:1018A0000F4829680227052600230122AF802670F1
:1018B00003B0BDE8F04007F047BE09480425012207
:1018C000257003B0BDE8F04007F03EBE01F108020C
:1018D000A9E700BFF802002014030020DC03002069
:1018E000640200202DE9F041436888464BB13B4A31
:1018F000D468A34205D31269934202D813F00305BA
:101900004DD00023DFF8DCC0A8F800304FF0010E06
:101910004FF6FF76DCF80470002207F58054083794
:10192000002A3AD05388033302EB83039C420DD83C
:101930000EF10103A8F800E01FFA83FEBEF1030FC9
:101940000CF1140CE6D10020BDE8F0811A680132D8
:10195000EED05A88033203EB82029442E8D39D888A
:10196000B5420DD01D885DB19D6801688D421A4653
:10197000D6D11B4A4360138903810120BDE8F08161
:10198000A242D5D2136801331346D1D0558803350E
:1019900002EB8502A242CBD8E1E73B46C6E7104AFC
:1019A000048912899442ACD104689A689442A8D1FF
:1019B0000C484268934203D902F58052934207D300
:1019C00082699342BFD902F580529342BBD201256E
:1019D000A8F800500120BDE8F08100BF640200209B
:1019E000F8020020140300202DE9F04FA04F89B029
:1019F00004464FF6FF783E68002E00F007813278EB
:101A0000531E052B00F2B283DFE803F0313E3E1E89
:101A10001E03002C40F0B880DFF87CE29EF80C300A
:101A2000002B00F0A1819EF800308EF80C40013BA5
:101A3000062B00F29B83DFE813F0970281015F0120
:101A40004701990370028401002C40F09D80337996
:101A5000012B00F0B78103ADC0F09E81022B0394EF
:101A6000AC60EC602C6140F08783002032E0002CF9
:101A700040F0AB803379032B00F2BE80DFE813F037
:101A8000EC001001AF00CD00B6F81490002C00F06F
:101A90008380B37D022B40F263814FEA8904754D48
:101AA000F38804EB090205EB8202033311890B442E
:101AB00013814C4405EB8404F3886289C3F57F43AA
:101AC00003ADFD33134400226381AA600392EA60F0
:101AD0002A61012004903378023B042B0AD8DFE806
:101AE00003F0432F23034F0004238DF80C30F388B9
:101AF000ADF81830604C04F1100654F8043B284649
:101B000003B19847A642F8D15C495D4800243C6087
:101B100004F0EAF801215B4804F03AF900287FF468
:101B20006AAF09B0BDE8F08F03238DF80C30F3885D
:101B3000ADF818303389ADF81A30F3680593D9E75A
:101B400002238DF80C303389ADF81830B388ADF826
:101B50001A30F3680593B37DA3F10603B3FA83F358
:101B60005B098DF81C30C5E701238DF80C303389F3
:101B7000ADF81830B388ADF81A30F3680593B9E7BB
:101B800005238DF80C30B5E703AD0023AB6003935C
:101B9000EB602B6101209DE74FEA8904354DB17D53
:101BA00004EB090305EB8303B3F808A05B6803EBC0
:101BB0008A0A062900F21283DFE811F01701890171
:101BC0009B01640177014B01480103AD2E4A0023BC
:101BD00053600393AB60EB602B6101207AE72B4CE1
:101BE0002B4821680023337102250122A58007F0CC
:101BF000ABFC002895D03E68234A03AD0023536018
:101C00000393AB60EB602B610E2063E71B491C481C
:101C100004F03AF806463860F1E61C4C1D4A21688B
:101C20001B48144D4FF0000986F804900823CDF8A6
:101C3000009007F051FC184B26685B88A18803EBE5
:101C4000830305EB830205F8239053682360022386
:101C500056601181A380CCE70C4B104A19680C48E0
:101C60000123002433710823009407F035FCC0E7FA
:101C70001003002014030020E002002008030020CD
:101C8000C8030020D8030020F0020020DC0300205D
:101C90006402002098EA0100F8020020A0EA010096
:101CA000A74D2B78022B00F079822B7D022B00F0C0
:101CB000888203ADA34B002001221A700390586064
:101CC000A860E860286105E7BEF802309C4D03EB90
:101CD000830305EB8305EB68002B00F06E819A4BC4
:101CE0009A481968022205249A80002301228EF85E
:101CF000004007F029FC12E09348DEF804208488B5
:101D0000016853889148033301EB84010024009457
:101D10009BB203249B008EF8004007F0DDFB0028F7
:101D200040F08780FDE6884ADEF8041093884988F1
:101D300003330B44022193808EF80010FFF760FDFF
:101D4000EDE7814B824A19688048002307240093FD
:101D5000CEF804308EF80040082307F0BDFBDEE724
:101D6000774D4FEA8904A4E69EF80030072B00F275
:101D7000618101A252F823F0F31F0000352000001A
:101D800035200000271D0000CD1F0000431D00006E
:101D9000431D0000292000000223337103946C606E
:101DA000AC60F368039328460DF10A01FFF79AFD32
:101DB000002840F0C58103946C60AC60EC602C613D
:101DC0000A2087E65F4B1B78002B40F049812146B3
:101DD000082260481BF0F6FC022003AD0023AB6034
:101DE0000393EB602B613E6874E602230022B37517
:101DF000042300925146F218544807F06DFB002866
:101E00003FF48FAEB17D0E20022908D904EB090200
:101E100005EB8202F388118903330B4413814C4490
:101E200005EB8405F3886A89C3F57F43FD331344CA
:101E30006B8103AD41F61D5200239042AB600393CA
:101E4000EB602B6100F0C8813E6843E641F61D500F
:101E5000DCE7414B414AB3F800A051683B48404A97
:101E600000234FF0060E86F816E00093042307F0D7
:101E700033FB0028C6D10AEB8A0A05EB8A05012349
:101E80002B744EE6F388326930484FF0010E86F825
:101E900016E04FF0000E0AF10C019B00CDF800E0B7
:101EA00007F01AFB0028ADD13BE62C4BB2691A6053
:101EB0001846002228495A60FFF714FD002894D1E3
:101EC00003AD0390A860E86028610A2002E6032AB7
:101ED00014BF062305230022B3750AF10401009202
:101EE000042306F10802194807F0F6FA002889D100
:101EF00017E633691548002B0CBF0123032300228A
:101F0000B3750AF108010092042306F10C0207F0F0
:101F1000E3FA00287FF476AF03E6BEF80220084D0E
:101F20009300134405EB83050624002369680D4ADA
:101F3000009306488EF80040082307F0CDFAEEE63D
:101F400014030020F0020020DC03002064020020C3
:101F5000A0EA0100EC030020E8030020D4020020E6
:101F600094EA010098EA01009EF80A304BB19C4DBA
:101F7000EB6800228EF80A201BB92A7C002A40F068
:101F800008819EF80B3053B1954D2B6A00228EF8D4
:101F90000B2023B995F82430002B40F0F98003ADD5
:101FA0000020A8608EF80000AEF80200CEF8040011
:101FB0000390E86028613E688CE5042469688948DC
:101FC0008EF80040012207F0BFFAA8E6BEF8022012
:101FD000834D854C9300991805EB810120684E686C
:101FE000B4F804C0486002202660A1F808C0A080B0
:101FF00097E77B4DBEF808102B782A7DB3FA83F360
:10200000B2FA82F200205B095209013101248EF8F4
:102010000A308EF80B20AEF80810AEF802008EF8E9
:102020000C008EF80040A1E701238EF800309EF8E6
:102030000A309BE7013B062B00F2988001A252F880
:1020400023F000BF691F00003D1D0000F91C0000C7
:10205000C91C00006D2100001B1F0000431D000073
:102060006248B0F80490B9F1010F00F2AC805C4D09
:1020700009EB890E05EB8E0E9EF80030BBB109F11D
:1020800001091FFA89F9B9F1020FA0F804900EF1C5
:10209000140EF1D103AD0822002154481BF092FB2D
:1020A0000020A8600390E86028613E6812E5DEF831
:1020B0000410036801F5805201F1080C002B65D073
:1020C0005988033103EB8101914201D30460D6E7C3
:1020D0000B680133FAD04B88033301EB830393423F
:1020E000F4D8B1F804A0C24514D0B1F800B0BBF1E7
:1020F000000F0FD0B6F806B00160D3450B46DDD116
:10210000002300933A4A3748042307F0E5F980B1E9
:102110000E2062E69A42D9D9196801311946D5D004
:10212000B3F802A00AF1030A03EB8A039342CDD865
:10213000D7E709EB890905EB890501232B74F0E446
:1021400004992B4A8B88F3800B88338125480094AF
:102150000423BDF80A6007F0BFF978B12C606C6009
:10216000AC60EC602C613E680E20B3E403AD00234C
:10217000AB600393EB602B610F20ABE4184B06EBD5
:10218000860603EB860601233374CAE461469BE7A7
:102190000123AEF80230FFF733FBC0E500239800BF
:1021A000184405EB800300245968124A0094082360
:1021B00005F820400B4807F08FF900287FF41BAD8D
:1021C000AFE40123EBE703AD082221461BF0FAFA46
:1021D0000394AC60EC602C613E6846E40F2013E68B
:1021E0001403002064020020DC030020EC03002024
:1021F00094EA010098EA01004068FFF7F5BB00BFD0
:1022000038B5084B1A68042A01D10C2038BD1D6866
:10221000054C02460121184644F8252003F0AAFD8A
:10222000002038BDE4030020E00200202DE9F04F3B
:10223000B14C8BB022780023069305930793089343
:10224000099372B1AD4C04F1100554F8043B05A894
:1022500003B19847A542F8D1002528460BB0BDE848
:10226000F08F201D02F0FF0603F0B0FD07460028A6
:10227000F2D14FF010234FF080525B69116952691F
:10228000DFF89882581C08BF02FB01F3C8F8103031
:102290009B49A3F5405340460022C8F80C3007F094
:1022A00013F905460028D8D11C238C22954996485D
:1022B000DFF86CB203F092FCD8F80C30DFF86482DF
:1022C000039603F5405200920322BC46A3F1040A90
:1022D00001922F46029523B1DAF804208B498A42F5
:1022E00064D003F6FC70524602E0904200F01C817C
:1022F00052F8041F0131F8D0854A07EB870102EB41
:102300008100019A4360013A92B20192804A03250A
:10231000013702F82150BFB203F58050009A824283
:102320000AF5805A0346D6D1019B029D012B40F24B
:1023300012815FFA8CF7022F00F00D81062F00F05A
:102340000C81002F00F0078104A96F4803F05EFCA8
:102350001C22044600211BF035FA002C00F00E81EF
:102360000123013F23700A2F09D8DFE807F01C087A
:102370001C0819081908160616000223237104A95F
:10238000614803F071FC0121624803F0E5FC00287C
:102390007FF462AFFFF728FB5FE703232371EEE7CB
:1023A00001232371EBE700232371E8E75A685A49B8
:1023B0008A4251D001318A4293D1039A72B1544A70
:1023C000534E07EB870502EB850102200137D8F851
:1023D000002006F82500BFB24A6008810221C8F833
:1023E0000030A8F804109A68013203F5805000F01C
:1023F000C38003F108025388033302EB8305A8422C
:1024000007D24FF48063A8F8043008234CEA030C89
:1024100084E795884FF6FF76B5420AD0158845B116
:102420009568DBF80060B54203D9CBF800505388BB
:1024300003330B4499B2A8F804105588033502EB16
:102440008502904204D8022900F096800823DDE737
:1024500013680133CFD1F6E72D48BD00EA1900EB30
:102460008206002100F822100222736032819968EE
:10247000013103F5805010D00833598801F1030E63
:1024800003EB8E0E70450DD2214B3D4403EB8505C9
:1024900001224FF480632A742B810137BFB24CF0C4
:1024A000020C3BE7B3F804E04FF6FF79CE451CD0B1
:1024B000B3F800E0BEF1000F17D0D3F808E0DBF866
:1024C0000090CE4503D9CBF800E0598832890A4400
:1024D000033292B232815988033103EB810398426F
:1024E000DBD919680131C8D1D7E74FF00102327446
:1024F00059883289EBE700BFF0020020E00200209B
:10250000B0F301003C030020C8030020DEC0ADDEB4
:1025100014030020D8030020FE011EF164020020F5
:102520000C030020DC030020D8F8002042B3184937
:10253000184E07EB870201EB820002214360018104
:10254000134877807D1C00F82210AFB24CF0010CCC
:1025500003F58050E2E60B257FE60F4D01220023B4
:10256000227005F11006636055F8043B05A803B11D
:102570009847AE42F8D16FE6042347E708256CE69A
:102580000222A8F804200122C8F800300392DDE7F7
:1025900014030020F8020020E002002068B161B1BD
:1025A0002DE9F04182B00C4601A90546FFF79AF9E2
:1025B00028B90A2002B0BDE8F081052070476E6896
:1025C000002206213046B6F806807788FFF7CAF861
:1025D00002AA791C22F8020D890006F10800FFF713
:1025E000C1F8804501D00D20E4E7BDF80430094A68
:1025F00003EB830302EB830303F10C00012103F0DF
:10260000B9FB26606B6801220C3363600020AA725C
:10261000D0E700BF1403002050B110B582B00DF117
:1026200006010446FFF75EF920B90A2002B010BD8A
:1026300005207047BDF80630094A03EB830302EB1F
:102640008303DA6812B9062002B010BDA27A002A0C
:10265000F9D0DA680021013ADA600846A172E5E7AC
:10266000140300202DE9F041434B82B01B78002277
:10267000ADF8022023B90224204602B0BDE8F08163
:1026800059B10A884FF6FF739A4201D04B8833B98B
:102690000424204602B0BDE8F0810524ECE74B6835
:1026A0009B0701D00324E7E7B1F808800D460646F2
:1026B00069464046FFF772F804460028DCD101A9BC
:1026C0002E4803F0A3FA1C22074621461BF07AF895
:1026D000002F42D002233B70BDF80030BC75BB8296
:1026E0006B683B610121264803F044FBF8602B88AE
:1026F0003B816B88BB80A7F8068022460621381DE7
:10270000FFF730F80DF10808042128F8060D07F14D
:102710000C004246FFF726F8A968ADF802008900D0
:1027200042466868FFF71EF801A9034678811348FE
:10273000ADF8023003F098FA36B17460FA68114BC4
:1027400032601B89B472338101210F4803F004FB0E
:10275000002891D1FFF748F98EE7BDF800300B4A09
:1027600003EB830302EB830208245389033BA3EBAF
:102770000808A2F80A807FE7F0020020C8030020C2
:102780000C030020F8020020D803002014030020CE
:102790002DE9F04383B050B1484B1B780022ADF8CF
:1027A00002204BB90225284603B0BDE8F083052579
:1027B000284603B0BDE8F0830029F8D00A884FF618
:1027C000FF739A4201D04B8823B90425284603B0F1
:1027D000BDE8F0834B689B0701D00325E8E7B1F81B
:1027E000088004460E4640466946FEF7D7FF054678
:1027F0000028DDD101A9324803F008FA1C2207465F
:1028000029461AF0DFFF002F49D003233B70BDF8A3
:102810000030BD75BB8273683B610121294803F01C
:10282000A9FAF86033883B817388BB804FF00409B4
:10283000A7F8068087F816902368BB612A46062110
:1028400007EB0900FEF78EFF0DF10808494628F84E
:10285000060D07F10C004246FEF784FFB168ADF8A3
:102860000200424689007068FEF77CFF0DEB09010B
:10287000034678811248ADF8023003F0F5F965603F
:10288000FA68114B22601B89A572238101210F4830
:1028900003F062FA00288BD1FFF7A6F888E7BDF8AD
:1028A00000300B4A03EB830302EB830208255389B4
:1028B000033BA3EB0808A2F80A8079E7F0020020A6
:1028C000C80300200C030020F8020020D8030020D9
:1028D000140300202DE9F043354C247814B902206C
:1028E000BDE8F08362B35BB3B3F804C0BCF1010F81
:1028F00023D8304F0CEB8C0407EB84074FF6FF7E98
:102900004FF000083C786CB91C687D6805F580566E
:10291000002C4AD06588033504EB8504A64212D802
:10292000C3F800800CF1010C1FFA8CFCBCF1020F03
:10293000A3F804C007F11407E4D10A20BDE8F0832E
:102940000520BDE8F08325680135E9D065880335A9
:1029500004EB8505AE42E3D3B4F80490F14515D0FD
:10296000B4F80090B9F1000F10D01C60A588854222
:10297000CBD125888D42C8D1A168116019680E4B52
:1029800051601B8913810020BDE8F083B542C7D296
:102990002C6801342C46C3D0B5F8029009F1030924
:1029A00005EB8905AE42BBD3D6E705F10804B5E7D0
:1029B000F002002014030020F8020020F8B5204A9D
:1029C000204B0025C2F84051C2F84451C2F848518A
:1029D000C2F84C51C2F80051C2F804511B6813B33D
:1029E0001949D2F804450A68A41A1A6824F07F44E9
:1029F000A2422F4609D8197CDE69A41A154499B958
:102A00001EB133461A68A242F5D91049104A0B7814
:102A100012789A420DD00F490F4A41F823504FF4D3
:102A20008013C2F80031F8BD1F745A699869904745
:102A3000E6E7531CDBB2022B08BF00230B70EAE76A
:102A40000010014014050020100500200D05002095
:102A50000C0500200405002000E100E02DE9F04F06
:102A6000B74AB84913780978994285B033D0013311
:102A7000DBB2022B08BF0023B3481370B34A0768C8
:102A8000DFF8E08252F82320D8F80010BB180024A9
:102A900023F07F43036025462046A646A9B10B6874
:102AA000934200F27D81CC68C1F800E0D21A18444C
:102AB000CB6934B13E1826F07F46CD618C604E6004
:102AC0000D46194601240029E9D1002C40F0A581CA
:102AD0004FF0010B05E0DFF88C820025D8F80010DC
:102AE000AB469B4B9B4FDFF8809243F00103009372
:102AF0000E464FF0000A002D2DD0D5F804E0D5F891
:102B000008C02C46ED69904B93481B68AEEB03025E
:102B100022F07F42824255D802EB0C032360002250
:102B200001206260A260E2612074002E6BD03068E8
:102B3000834261D9B64603E0106898424CD296466B
:102B4000DEF81C201B1A002AF6D12360E261CEF8C1
:102B50001C40002DD1D197F801C097F800E0F44552
:102B600071D0734603EB43030EF10100BA7807EB13
:102B7000C3035FFA80FE7245187987F800E004BF4E
:102B80004FF0000E87F800E002289A684CD0032826
:102B90003DD00128E3D1107C0028E0D1D3F80CE02F
:102BA000C2F804E0D3F810C0C2F808C014465A694D
:102BB000E26099F800209B69A361002AA3D06060BD
:102BC0008646A0E7A3EB0E0323F07F4363450AD2BA
:102BD000ACEB03032360A2E7C01A10602360E2613C
:102BE000CEF81C40B5E70023012223606360A36098
:102BF000E36122743EB13068C8F80040C31A336004
:102C0000E661264677E7C8F80040264673E7002EBF
:102C1000A5D0002200E01E46F3693274002BFAD1E1
:102C2000C8F800301E4696E74EB1B242344603D192
:102C3000BDE09A4260D01C46E369002BF9D1002325
:102C40001374F4458DD1BAF1000F02D18E4200F019
:102C50009D80002E00F0C5803B4B404A1C68D2F896
:102C60000475DFF80881D6F800A098F800103B1B27
:102C700023F07F43DD1CA9B93949354B4FF480302F
:102C8000C2F844030126C2F804034FF40030C1F82F
:102C9000800143F00103086016604FF43C609847E0
:102CA00088F80060AA452CBF04EB0A0363192B497E
:102CB00023F07F43C1F84035D1F80425D21BDB1B3C
:102CC00022F07F4223F07F4303329A420ED9204BF9
:102CD000D1F80425C1F8402543F001034FF43C60CE
:102CE00098471F4B4FF40032C3F80021002389F8A6
:102CF000003005B0BDE8F08FA24239D0D2F81CE018
:102D00001368C4F81CE0BEF1000F11D03046DEF8A5
:102D100000402344CEF80030864209D0002397F8C3
:102D200000E097F801C0137406464FF0010A88E7E7
:102D3000002397F800E097F801C0137481E700BF03
:102D40000C0500200D0500201005002004050020C2
:102D5000B0EA0100F4030020FEFF7F0000100140F4
:102D600000E100E01405002000050020010500201E
:102D70001346F069C8F80000D8B1D3F81CE01B680E
:102D8000C4F81CE0BEF1000FC1D1C5E7BBF1000FD4
:102D90007FF45FAF002389F8003005B0BDE8F08F05
:102DA000002C3DD19B1A0B604FF0010B99E6334686
:102DB000DFE701931C4BDFF87CC003924FF0010E5C
:102DC0000291C3F808E0009BCCF8000089F800E00D
:102DD0004FF43C609847D8F80000019B0299039A91
:102DE000CBE7114D114A124C4FF480334FF40031B0
:102DF0000127C2F880103C43C5F848334FF43C60CB
:102E0000C5F808336F60A0470A4BAF604FF43C60D1
:102E10001E60A047084B1E7068E7C8F8001057E610
:102E2000C8F80010BEE700BF0010014000E100E05C
:102E3000B0EA010010050020010500202DE9F8434B
:102E40001F4D204E204FDFF898804FF480334FF411
:102E500000324FF001090024C6F8802047EA090734
:102E6000C5F848334FF43C60C5F80833C5F8049002
:102E7000B847C5F808904FF43C60C8F80040B84720
:102E8000124B13481349144A1C70144B04600C7005
:102E900014704FF48011C0220B2098701C705C706D
:102EA000C6F8801186F814233160C5F8084586F805
:102EB0001123D5F80435C8F800302046BDE8F88362
:102EC0000010014000E100E0B0EA0100010500202F
:102ED000140500200C0500200D050020F40300203F
:102EE00010050020074B9B780BB9082070473AB1BA
:102EF00030B10368187C0028F7D159745A617047C3
:102F000007207047F40300202DE9F041234CA378FB
:102F100013B90820BDE8F0810028FAD0042902D8AE
:102F20000720BDE8F0814369002BF2D0437C0546C1
:102F3000012B4FF000000CBF8846804617460E4616
:102F400002F004FE6378A07821785A1CD2B2904235
:102F500008BF002291421AD003EB430304EBC303E2
:102F600001200F499D601871D1F80415D9601E61C8
:102F7000C3F814809F610020627002F0EFFD094BDE
:102F80004FF48012C3F800210020BDE8F08100203A
:102F900002F0E4FD0420BDE8F08100BFF40300204E
:102FA0000010014000E100E070B5184DAB780BB99E
:102FB000082070BD0028FBD04369002BF8D0002406
:102FC00004740646204602F0C1FD6A78A878297884
:102FD000531CDBB2984208BF2346994211D002EB42
:102FE000420205EBC20202212046966011716B700D
:102FF00002F0B4FD064B4FF48012C3F800212046C6
:1030000070BD204602F0AAFD042070BDF40300202C
:1030100000E100E030B583B001A9124802F0F6FDEE
:10302000F0B1114D044628682060002002F08EFDAA
:103030000E4B0F481B88026801339B1AE380002166
:1030400002F062FEA080002002F088FD01A9054880
:1030500002F00AFE074B1B6813B101462846984749
:1030600003B030BDC4060020D4EA0100B80500203A
:10307000E40600201C05002030B50378052B83B042
:10308000054626D0002B31D12C4B1C683CB123685F
:1030900068889B68984723685C68002CF7D1284CA7
:1030A000002002F053FD23687BB10121244802F087
:1030B00061FE002002F052FD224B1B6813B128462E
:1030C00001219847236803B030BD1F4B6A881A80DE
:1030D000EBE71E4BD3F88424D3F8803413F0FF0FB2
:1030E00004D11B4BD2B2052A08BF1D4601A91948BD
:1030F00002F08CFD04460028E5D02B680360002018
:1031000002F024FD104B0E481B88026801339B1A05
:10311000E380002102F0F8FDA080002002F01EFDF7
:1031200001A90C4802F0A0FD064B1B68002BCAD079
:1031300001462846984703B030BD00BFDC0600209A
:10314000E40600201C050020B805002000700240A5
:10315000D0EA0100C406002030B5012883B028D091
:1031600030D3022823D101A91B4802F04FFD0446A9
:10317000E8B11A4D28682060002002F0E7FC184BE7
:1031800018481B88026801339B1AE380002102F073
:10319000BBFDA080002002F0E1FC01A90E4802F076
:1031A00063FD114B1B6813B101462846984703B0D5
:1031B00030BD01A9084802F029FD04460028F6D0D8
:1031C0000A4DD7E701A9044802F020FD0446002873
:1031D000EDD0074DCEE700BFC4060020CCEA0100C9
:1031E000B8050020E40600201C050020C8EA010004
:1031F000C4EA01002DE9F04F87B006AE0025044671
:10320000894692469B4646F8105DA84601E008F1C3
:103210000108626801235568214600223046A8470C
:103220000028F4D18DF806000490B8F1000F28D0E2
:103230000546064662680123576821460DF10602DD
:1032400004A8B84762680123576821460DF10702B8
:1032500004A8B8479DF807304B454FF000022146BF
:1032600004A803D1AA4510D00135EDB29DF806306F
:103270006768023B7F68B8479DF806301E44B0453A
:10328000D8D8052007B0BDE8F08F109A9DF8063019
:1032900013608BF800308BF801906168023B4D6839
:1032A0000BF102022146A847002007B0BDE8F08FCD
:1032B0002DE9F041082382B005464FF484723A4963
:1032C0003A4802F08BFC20B10324204602B0BDE84E
:1032D000F081374807F0B8FD04460028F5D1354A9B
:1032E000354B364E147021464822354834601C60F8
:1032F0001AF068FA2146482232481AF063FA002D83
:103300004CD095E80700304B83E80700002006F01A
:1033100097FE00283DD12D4C2A4F94F808C06568CF
:10332000DFF89CE0032303FB0C4C0CF1090C04F1C7
:103330000906664520D0FEB17378DBB1B278B218C9
:1033400018D003F1FF38114652FA88F8013A01E02B
:1033500001310FD012F8013F13F0800F03F00F037B
:1033600014BF0EEBC30307EBC30390451C60286832
:103370005860EDD10336DCE702A90B2301F8043DC8
:1033800012482B689847044600289ED007F0F4FDA9
:103390009BE78528BFD0FEF7BBF9BCE70A4B1D6051
:1033A0005D601D72B2E700BFBC050020C4060020AE
:1033B00079300000E8060020D8060020D40600205E
:1033C00028050020700500201C050020ECEA010003
:1033D00010B507F0BDFE08B9082010BD07F0C0FE0B
:1033E00004460028F8D1044806F03AFE00B910BDA2
:1033F000FEF78EF9204610BDC0EA010007F0CCBDF3
:1034000008F086BE4FF0804303E0D3F83824D1079C
:103410002BD5D3F838249207F7D530B583B001A95E
:10342000124802F0F3FB0446E8B1114D2868206011
:10343000002002F08BFB0F4B0F481B880268013302
:103440009B1AE380002102F05FFCA080002002F0C4
:1034500085FB01A9054802F007FC084B1B6813B166
:1034600001462846984703B030BD7047C406002087
:10347000D8EA0100B8050020E40600201C05002061
:1034800010B582B0822301A912488DF8003002F0F5
:10349000BDFBE8B1044600982060002002F056FB16
:1034A0000D4B0E481B88026801339B1AE3800021F4
:1034B00002F02AFCA080002002F050FB01A9054880
:1034C00002F0D2FB064B1B6813B1014668469847D1
:1034D00002B010BDC4060020B8050020E40600209C
:1034E0001C05002010B582B0832301A912488DF875
:1034F000003002F08BFBE8B1044600982060002009
:1035000002F024FB0D4B0E481B88026801339B1A06
:10351000E380002102F0F8FBA080002002F01EFBF7
:1035200001A9054802F0A0FB064B1B6813B1014638
:103530006846984702B010BDC4060020B8050020B8
:10354000E40600201C05002030B5012083B001F006
:1035500061FA044610B9204603B030BD842301A9A6
:1035600013488DF8003002F051FB05460028F2D0D8
:1035700000982860002002F0E9FA0E4B0E481B88E4
:10358000026801339B1AEB80002102F0BDFBA8808A
:10359000002002F0E3FA01A9054802F065FB074BA1
:1035A0001B68002BD7D0014668469847D3E700BF79
:1035B000C4060020B8050020E40600201C050020F9
:1035C0002DE9F04F037881B08346852B00F2A2806D
:1035D000DFE813F08A02D801A3002A025902C800CA
:1035E000D000A000EB00FE001101A000A000A00090
:1035F000A0003301A000A000A000A000A000A00037
:10360000A000A000A000A000A000A000A000A000BA
:10361000A000A000A000A000A000A000A000A000AA
:10362000A000A000A000A000A000A000A000A0009A
:10363000A000A000A000A000A000A000A000A0008A
:10364000A000A000A000A000A000A000A000A0007A
:10365000A000A000A000A000A000A000A000A0006A
:10366000A000A000A000A000A000A000A000A0005A
:10367000A000A000A000A000A000A000A000A0004A
:10368000A000A000A000A000A000A000A000A0003A
:10369000A000A000A000A000A000A000A000A0002A
:1036A000A000A000A000A000A000A000A000A0001A
:1036B000A000A000A000A000A000A000A000A0000A
:1036C000A000A000A000A000A000A000A000A000FA
:1036D000A000A00024014701960186000C02C8004A
:1036E000A14D2B78032B15D108F074FB90B12B78EA
:1036F0009A1ED2B2062A05D89C498A5C12B106F0FD
:103700008BFC2B78022B00F02983082B00F02683FA
:1037100004232B7001B0BDE8F08F934D2B789A1ED7
:10372000D2B2062A05D891498A5C12B106F074FC1F
:103730002B78022B01D0082B01D107F051FD8C4BC7
:103740005B6803222A700BB102209847894B1C68E2
:1037500044B1636820461B685946984723681C6833
:10376000002CF6D1844B93E80500594601B0BDE822
:10377000F04F1047827813064CBF804B7E4B02F00F
:103780000F0203EBC20393E8050059469047002857
:10379000C0D09BF8020000F00F03013B062BB9D804
:1037A00001B0BDE8F04F07F049BE714B5B680BB14B
:1037B000082098476F4B1C68002CABD063682046EC
:1037C0001B685946984723681C68002CF6D1A1E76E
:1037D000674B5B680BB109209847664B1C68002C4F
:1037E00098D0636820461B685946984723681C6830
:1037F000002CF6D18EE75E4B5B680BB10A20984730
:103800005C4B1C68002C85D0636820461B685946B9
:10381000984723681C68002CF6D17BE7524C23782C
:10382000062B00F06D82072B02D0052B7FF472AFC0
:1038300007F0E0FC022323706CE74D4B5B680BB193
:103840000F2098474B4B1C68002C3FF463AF636814
:1038500020461B685946984723681C68002CF6D1FF
:1038600058E7454BDFF80C91454993E80500904730
:10387000D9F80040002C00F06982414D6368204671
:103880001B682946984723681C68002CF6D1DFF88E
:10389000E0A0DAF804300BB10D209847D9F8007099
:1038A000002F00F0CF8197F80890B9F1000F00F0D9
:1038B000C4814FF00008444607F109057B68DB68C6
:1038C00013B12146384698473B7AA34240F22881FB
:1038D0006E78002E00F0A8810024234632460AE0CC
:1038E000AB782A190134D05C08F05AFBE3B29E424F
:1038F00040F29A816A789342F2D300231B78FFDE6C
:10390000DFF87090D9F80070002F00F0578197F819
:1039100008A0BAF1000F00F04C814FF000084446B7
:1039200007F109057B68DB6813B1214638469847E3
:103930003B7AA34240F2F4806E78002E00F0308192
:103940000024234632460AE0AB782A190134D05CC1
:1039500008F026FBE3B29E4240F222816A789A4246
:10396000F2D800231B78FFDEE8060020B8EA010049
:103970001C050020D406002070050020280500202A
:10398000DCEA0100DFF80C93D9F80070002F00F09A
:10399000D88097F808A0BAF1000F00F0CD804FF062
:1039A0000008444607F109057B68DB6813B121462E
:1039B000384698473B7AA34240F2B2806E78002E98
:1039C00000F0B1800024234632460AE0AB782A1981
:1039D0000134D05C08F0E4FAE3B29E4240F2A380E6
:1039E0006A789A42F2D800231B78FFDEA44D2B7828
:1039F000032B00F08F8107F0BDFB00283FF48AAE57
:103A00002B789A1ED2B2062A00F29B819D498A5CCD
:103A1000002A00F09681022B00F06C81082B00F048
:103A2000698106232B7075E6954D2B78082B00F0E5
:103A300049819A1ED2B2062A40F25681924806F077
:103A4000BDFA2B78022B00F04C81082B00F0498145
:103A500005232B708D4B5B680BB1032098478C4B73
:103A6000594693E8050090478A4B1C68002C3FF4A8
:103A700051AE636820461B685946984723681C6806
:103A8000002CF6D146E6814B5B680BB103209847CA
:103A90007F4B814993E8050090477E4B1C684CB1F1
:103AA0007D4D636820461B682946984723681C683B
:103AB000002CF6D1724D2B78062B00F00081082BDC
:103AC0000FD09A1ED2B2062A00F21F816D498A5C7D
:103AD000002A00F01A81022B03D0082B01D007F036
:103AE00089FB02232B7015E6654B1B78032B00F036
:103AF000F480082B00F0F180644B5B680BB1002070
:103B00009847664B1C68002C3FF404AE636820465F
:103B10001B685946984723685C68002CF6D1F9E584
:103B200000235B78FFDE08F101085FFA88F4544552
:103B300005F10305FFF438AF3B681F68002F7FF4E1
:103B400028AF4F4D00F046FC2B789A1ED2B2062AC1
:103B500000F2B0804B498A5C002A00F0AB80022B57
:103B600003D0082B01D007F045FB484B5B680222CD
:103B70002A700BB101209847454B594693E8050040
:103B80009047D9F80040002C3FF4C4AD636820464C
:103B90001B685946984723681C68002CF6D1B9E584
:103BA00008F101085FFA88F4A24505F103053FF624
:103BB000B9AE3B681F68002F7FF4A9AE304D07F007
:103BC000BDFF2B789A1ED2B2062A6BD9022B00F0C9
:103BD0008180082B7ED0D9F8004000232B704CB197
:103BE0002F4E636820461B683146984723681C683F
:103BF000002CF6D1264B2A4993E805009047234B29
:103C00005B680BB10E2098472B78023BDBB2062B8A
:103C10003FF680AD1B4AD35C002B3FF47BAD01B077
:103C2000BDE8F04F06F0F8B908F101085FFA88F432
:103C3000A14505F103053FF641AE3B681F68002F23
:103C40007FF431AE00F0D0FB144B1B68002B54D036
:103C500001200B4D07F044FA2B789A1ED2B2062AA7
:103C600006D9022B33D0082B31D001232B7051E51C
:103C700004498A5C002AF4D006F0CEF92B78F0E7EC
:103C8000E8060020B8EA0100080000201C0500201A
:103C900070050020D4060020E8EA0100D8060020C4
:103CA000E0EA010030498A5C002A8FD006F0B4F9BE
:103CB0002B788BE72D4806F081F92B784FE7072307
:103CC0002B7027E502232B7007F09EFAC2E607F05F
:103CD00087FACAE707F084FA7DE72548FFF770FC0A
:103CE0000AE707F07DFAB3E61F498A5C002A7FF4F1
:103CF000A9AEA3E607F074FA93E69AF80800A8E7DD
:103D000007F078FA0823237004E5184806F056F9FE
:103D10002B78E0E608F05EF800283FF46CAE2B78D4
:103D20009A1ED2B2062A05D80F498A5C12B106F053
:103D300073F92B78022B14D0082B12D004232B708C
:103D400059E60A4806F03AF92B7864E6DFF824A031
:103D5000DAF80430002B7FF49FAD73E707F040FAE8
:103D6000D6E407F03DFAE9E7B8EA010008000020D0
:103D7000E4EA01001C05002030B5274D83B0286817
:103D80000023019300B38488A4B1C388B3F5006F06
:103D90003ABF5A1C92B2012204F1FF3428BF00231B
:103DA0008480C28001A8ADF80630FFF709FC01202D
:103DB00003B030BDFFF704FC1849194801F094FF27
:103DC00001202C6003B030BD1449154801F05CFFA0
:103DD000044628600028D6D1124B1B680BB9184640
:103DE000E6E701F0B3FE104A0E481388B3F5006F02
:103DF00035BF5C1C2346A4B2012401211480ADF818
:103E0000063001F0D3FF002001F0A8FE01A8FFF763
:103E1000D7FB0120CCE700BFEC06002018050020EE
:103E2000C4060020E4060020B80500202DE9F0417A
:103E3000077ADFF8E0E0DFF8E0804FF0030C0CFBDE
:103E4000070C00F109040CF1090C21468C4582B0E5
:103E500020D001B34E780022B24218D08B781344A0
:103E6000D94214D0CB5C03F00F051B0608D45EF8D2
:103E700035300132002BEFD0112002B0BDE8F081C7
:103E800058F835300132002BF6D1B242E6D1033179
:103E90008C45DED100211F4D1F4ECAB2BA4229D235
:103EA00002EB4202A21825D053780BB39378D318B3
:103EB00018BF4FF0010E05D11AE093787344D31860
:103EC00015D0BE461B7813F0800F03F00F0314BF0C
:103ED00006EBC30305EBC303186047683F685F60E8
:103EE00092F801C00EF10103F445DFB2E5D8077A7C
:103EF0000131D2E7094A13681BB11A681368002B15
:103F0000FBD102A910600B2201F8042D43681B6845
:103F10009847B2E77005002028050020D40600204D
:103F2000084B1B681BB11B685B68002BFBD1064A62
:103F3000136823B11A685368002BFBD10432106058
:103F400000207047DC060020D80600200A4A1368CB
:103F500043B1984202D108E0834205D01A68536801
:103F6000002BF9D105207047043203685B681360A9
:103F70000368002058607047D8060020024A137872
:103F80000133137000207047E0060020024A1378C6
:103F9000013B137000207047E0060020024B1878A8
:103FA000003018BF01207047E006002000F00F032A
:103FB000072B10B5044604D807F0CEFA204607F0C8
:103FC00049FA2046BDE8104007F060BD07F0E8BFA1
:103FD000014B1868704700BFD406002070B4114B25
:103FE0001E68A6B1357A75B1737A834206F109026B
:103FF00010D0002303E012F8034F84420BD00133AA
:10400000DBB29D42F7D133681E68002EEAD13046FC
:1040100070BC704700230029F9D030460B7070BC8B
:10402000704700BFD4060020436811461B6818473C
:1040300000F00F03082B01D91020704702064CBF77
:10404000044A054A02EBC30318680028F4D0436809
:104050001B681847280500207005002038B5094B5B
:104060001C6805461CB90AE023681C683CB16368FB
:1040700029461B68204698470628F5D038BD0620FB
:1040800038BD00BFD406002038B50D46044607F001
:10409000D1F808B9082038BD044B1B78022BF9D1A0
:1040A00029462046BDE8384007F0D4B8E80600208D
:1040B00038B50D46044607F0BDF808B9082038BDEC
:1040C000044B1B78022BF9D129462046BDE8384025
:1040D00007F056B9E8060020F8B543689B68044627
:1040E0000E4615461BB19847062800D0F8BD0DB105
:1040F0000720F8BD237AB34222D9093406EB4606DD
:1041000034446778F7B12B463A4614E0A378621935
:10411000D65C06F00F03072B05D8304607F01CFAD3
:10412000304607F097F93046013507F0AFFCEBB2A7
:104130009F4207D962789A42E8D800231B78FFDEB5
:104140006B78FFDE0020F8BD43681B6903B1184798
:10415000184670472DE9F0472A4BD3F80080B8F194
:10416000000F4DD098F808A0BAF1000F3FD00027FB
:104170003C4608F109050BE00022214640469847DD
:1041800006280AD00137FCB2A24505F103052ED955
:10419000D8F804309B68002BEED198F80830A34281
:1041A00002D800235B78FFDE95F80190B9F1000F8B
:1041B000E8D0002423464A4614E0AB782A19D65C9E
:1041C00006F00F03072B05D8304607F0C5F9304637
:1041D00007F040F93046013407F058FCE3B2994546
:1041E000D0D96A789A42E8D800231B78FFDED8F845
:1041F0000030D3F80080B8F1000FB3D1BDE8F087EC
:10420000BDE8F087D40600202DE9F8431F4B1F6856
:10421000002F38D097F80890B9F1000F2AD04FF04E
:104220000008444607F109057B68DB6813B12146A5
:10423000384698473B7AA34222D96E7896B100243B
:104240002346324609E0AB782A190134D05C07F0E6
:10425000A7FEE3B29E4205D96A789A42F3D80023BA
:104260001B78FFDE08F101085FFA88F4A14505F12B
:104270000305D9D83B681F68002FCBD1BDE8F88370
:1042800000235B78FFDEBDE8F88300BFD406002082
:10429000002070472DE9F04F4B6887B0002B7DD090
:1042A0000C4615460392029007F0C4F8E668AE4249
:1042B00028BF2E468346002E00F087804FF0000A6C
:1042C0005746D1464FF00108CDF804A0A3686168B5
:1042D000B3429A4628BFB24601B352460BEB0700E1
:1042E00019F04BFAA268E368C4F80490A2EB0A0242
:1042F000A3EB0A03A6EB0A065744A260E3607AB177
:10430000002B08BF4FF00008002EDFD1029AC2F840
:1043100000B05760404607B0BDE8F08F2BBBE368A4
:10432000019A22B95BB99846002ECFD1EEE72268F8
:1043300012681268226001220192002BF3D02168DA
:10434000002939D0CDF8109003E0A368216801332B
:10435000A3604B6800225D6804A80123A8470028D9
:10436000F3D12061002EB1D1D0E72046534650F85A
:10437000101B4A6855680BEB0702A847A268E36860
:10438000A2EB0A02A3EB0A03A6EB0A065744A260BB
:10439000E360002ACBD001220192B1E70B681B68D1
:1043A0001B68002B7FF47CAF8B68002B7FF478AF09
:1043B000036043609846ADE76160002FA6D0039B81
:1043C000BB4288BF4FF00008A0E737464FF0010816
:1043D0009CE700BF08B50020FFF7E8FD8020BDE89E
:1043E0000840FFF7E3BD00BF08B50020FFF7EEFD72
:1043F0008020BDE80840FFF7E9BD00BF70B5C38865
:1044000093421D4628BF1546934284B00E461FD8DE
:104410000022002003920196029501F097FB01A96A
:104420008020FFF731FE044628B1002001F096FB02
:10443000204604B070BD07F001F9802818BF102491
:10444000F3D1094A094B92E8030083E80300ECE743
:104450008020144606F0DEFEB4FBF0F303FB1042AE
:10446000B2FA82F25209D4E734EB01001C070020B3
:104470002DE9F04F0B78062B87B07CD010D90D2B8F
:1044800069D02AD80B2B06D00C2B2FD1AA4A13782F
:10449000002B40F08E800024204607B0BDE8F08F4E
:1044A000022BF8D045D9032B25D0052B1ED10DF1B9
:1044B0000D008DF80C3007F05FF89DF80D209F4D32
:1044C000002102F01F032960032B00F2B880DFE80F
:1044D00013F0BA00D300AE009F000E2B19D0852B2D
:1044E00004D1954B1A78032A00F0F8800624204660
:1044F00007B0BDE8F08F924801F076FC0028CAD0E2
:10450000904B01221A60BFF36F8FBFF34F8F0024CF
:10451000C2E7894B1A78012ABDD08B498B480A78AB
:10452000012422F002021C700A700024FFF748F8F0
:10453000B2E7012BDAD1804B1A78032AD6D0824910
:1045400082480A78032422F002021C700A700624B2
:10455000FFF736F8A0E74FF08043D3F8383413F074
:10456000010F754B1A7821D0022A94D076497748EA
:104570000A780224D5E7C87803280D46B6D06F4ED6
:104580003368002B00F09C800022326071689847ED
:104590000446002854D13368002B00F09380AB7898
:1045A000002B7FF478AF07F00DF875E7012AB4D13E
:1045B00071E7654C65482178002321F002012170E4
:1045C00013701C46FEF7FCFF66E79DF80E100629E7
:1045D00000F0F480082900F0DF80C9B95C4C0222A9
:1045E000204619F0EFF8584A23781278900743F0E4
:1045F000010148BF43F0030321700DF10D0048BFD6
:10460000237002225249FFF7F9FE0446062C03D11B
:1046100003A8FFF723FD044694B92C68002C5AD058
:1046200007F00CF8044600287FF435AFBBE79DF88F
:104630001100010759D112F0600F00F08F8006249D
:1046400006F0F2FF28E7C2F34114002CE0D1D209B2
:10465000BBD19DF80E30032B50D0092B5CD0012B21
:10466000D6D1BDF80F30012BD2D1FFF797FC00282F
:1046700040F068810F24E3E701A99DF81100FFF7DE
:10468000ADFC064678B303AA9DF80410FFF7CCFCF6
:1046900006280446C0D19DF80D3013F0600FCFD12D
:1046A000254A9DF804101278DF099DF80E3040F07D
:1046B000C2800B2BC4D1052A00F04A810824BFE731
:1046C0000E24BDE7234B1B68082B04D1224B1B682B
:1046D000002B3FF4E0AE06F09DFFDDE61A491B48D3
:1046E0000A7804242FE71024AAE703A9FFF7A0FC07
:1046F0000628044690D19DF80D209CE7BDF80F30A8
:10470000012B85D1FFF74AFC0028B3D00E4A13785D
:1047100043F00203137080E7074C2378043B012B1E
:10472000CCD89DF80F30002B00F03581012B00F024
:104730002681072484E700BFFC0600201C07002018
:10474000240700205C70024018070020FCEA0100EA
:104750002807002030010010340100109DF80E20C1
:10476000954B9DF811401B78012A3DD052D3032A66
:104770007FF465AF04F00F02072A3FF660AFBDF883
:104780000F1000297FF45BAF052B01D0002A95D1D3
:10479000204606F053FE40E787490978052900F0D6
:1047A000CE8004297FF434AF844A14700DF10D00DB
:1047B00001228249FFF722FE044627E79DF81020D8
:1047C000022A62D0032A4AD0012A7FF421AFBDF821
:1047D0001330002B3FF421AF0DF10D001222784968
:1047E000FFF70CFE044611E704F00F02072A3FF61C
:1047F00026AFBDF80F1000297FF421AF052B02D0A2
:10480000002A7FF45BAF204606F0A6FE204606F0A5
:1048100021FE02E7052B02D023077FF44FAF20468D
:1048200006F078FE6549022208800DF10D00FFF7C1
:10483000E5FD0446F0E6002B74D00A2B7FF400AFB0
:10484000052A7FF43BAF3046FFF77EFC5B493A46D2
:1048500008700DF10D00FFF7D1FD0446DCE6BDF850
:104860001330002B3FF4D9AEBDF811109DF80F00A6
:1048700001F038F9014600283FF4CAAE0DF10D00F1
:104880000A78FFF7BBFD0446C0E6BDF81320002AF6
:104890003FF4C3AE092A28BF09229146FFF798FBCF
:1048A000A34606464FF0090AAEB1CDF804B0002782
:1048B00000E0013772680123D2F8048031460022FB
:1048C00001A8C0470028F4D1337A3268234416681F
:1048D000BA44DCB2E8E7394E3A4930464A4618F065
:1048E0004CFF3471A6F802A0FFF758FB18B1F3791A
:1048F00043F02003F371FFF76BFB334BBDF813203C
:10490000186000205E60C3F80890DA6001F01EF9BC
:104910002E498020FFF7CCFB044628B3002001F08D
:104920001DF973E6052A7FF4C9AE244C0DF10D0084
:10493000214623800222FFF761FD04466CE61F4BEF
:104940001A7033E7224A137823F00203137064E6E7
:10495000BDF80F30FF2B3FF6ECAE30469DF80F2030
:10496000FFF7BAFB044657E606F068FE802805BF4D
:10497000184B93E80300102485E80300CEE7FFF707
:10498000E9FB2378052B3FF448AE0523124823703A
:10499000FEF716FE41E6FFF737FC2378042B3FF4C1
:1049A0003CAE0B4A0C481378042123F00203137029
:1049B0002170FEF705FE30E6FC06002028070020E7
:1049C00020EB010000EB0100000700203CEB0100A0
:1049D0001807002034EB0100FCEA010038B504465A
:1049E0000D4606F02BFEA04202D01023184638BD1B
:1049F00095E80300024A82E803000023184638BD08
:104A00001C07002008B1402303600148704700BF25
:104A100028070020034B1B7843FA00F000F0010048
:104A2000704700BF180700202DE9F0411D461B7894
:104A300084B006460F4614460E2B00F23381DFE8A1
:104A400013F01900A200B900BF003101CA00E40050
:104A50003101310131013101F80018012B010F0042
:104A600020466FF0020101F069F90025284604B0E4
:104A7000BDE8F08194F82830002BF6D0698840F228
:104A8000FF73994200F0818194F808E0D4F804C0E3
:104A90004FEA8E0EBCF1000F40F01682AA4B6069FF
:104AA000A3FB0E820844D2080232B0FBFEF80EFBD4
:104AB00018009042C0F0618294F82920002AD4D0D6
:104AC000627A60689200002840F0FE81A3FB020C2D
:104AD000A06901EB000E4FEADC000230BEFBF2FCE5
:104AE00002FB1CE28242C0F04C82A07A6268800025
:104AF000002A40F0E981E269A3FB00E30A44DB08F5
:104B00000233B2FBF0FE00FB1E229A42C0F03B8251
:104B1000E07A63688000002B40F0D681226AA3F11E
:104B20003333A3FB00E31144DB080233B1FBF0F2A3
:104B300000FB1211994298D2032194F8243023B13A
:104B40006B886361002384F8243094F8253023B106
:104B50006B88A361002384F8253094F8263023B1B4
:104B60006B88E361002384F8263094F8273023B162
:104B70006B882362002384F827307B6930469B6969
:104B80009847054672E76FF00801204601F0D6F815
:104B900000254FF400630122227325726572A5720D
:104BA000E57284F8295084F828506361A361E361B9
:104BB00023625BE72046042101F0B2F8002555E7A7
:104BC00020466FF0040101F0B9F87B6930469B681C
:104BD000984705464AE76B78DA0968D15B09012BEB
:104BE00060D1AA780A2A00F083810B2A00F0738131
:104BF000092A57D12B79022B54D14B695B68002BC2
:104C000050D029469847054630E795F90230002BE9
:104C100068DB4B69DB68002B44D0EA782AB98A69E3
:104C20001AB1022190477B69DB68304698470546F8
:104C30001CE7FFF775F9054600287FF417AF3046EB
:104C4000FFF79CF9054600287FF410AF4FF400638E
:104C500020726072A072E07284F8290084F8280043
:104C60006361A361E36123622046012101F058F8EA
:104C7000FCE6FFF76BF9054600287FF4F7AE3046F7
:104C8000FFF784F9054600287FF4F0AE20466FF068
:104C9000010101F053F8E9E62046022101F040F855
:104CA0000025E3E60625284604B0BDE8F081C3F3FD
:104CB0004118B8F1000F49D0B8F1010FF2D1AB782B
:104CC000022B00F04781032B00F03C81012BE9D13E
:104CD0002B79013B012BE5D84B6929461B68984786
:104CE0000546C3E6EB781BB98B690BB103219847E6
:104CF0006368002B40F0E88094F82830002B3FF4E4
:104D000064AF94F82930002B00F013816369B3F588
:104D1000006F04BF012384F82430A369B3F5006F4A
:104D200004BF012384F82530E369B3F5006F04BFA5
:104D3000012384F82630236AB3F5006F7FF495AE23
:104D4000012384F8273090E6CDCCCCCC03F01F03B0
:104D5000012BA7D1AB78062BA4D103A8CDF80880EE
:104D6000FFF750FE044602A8EA782979009023460E
:104D70003046FEF73FFA052800F00B81681C2146FB
:104D8000029AFFF73BFB054670E66369207AB3F5AC
:104D9000006F4FEA800007D003F2FF73B3FBF0F21D
:104DA00000FB1233013363616168002940F08C809D
:104DB000814B6269A3FB00E302F2FF72DB0802335E
:104DC000B2FBF0FE00FB1E229A4294F829306ED30B
:104DD000002B3FF44AAEA269607AB2F5006F4FEA49
:104DE000800007D002F2FF72B2FBF0F100FB11224B
:104DF0000132A2616268002A66D1A2F13332A16950
:104E0000A2FB00E201F2FF71D2080232B1FBF0FE18
:104E100000FB1E119142C0F0BA80002B3FF425AE7A
:104E2000E269A07AB2F5006F4FEA800007D002F283
:104E3000FF72B2FBF0F100FB11220132E261626805
:104E4000002A41D1A2F13332E169A2FB00E201F272
:104E5000FF71D2080232B1FBF0FE00FB1E1191423D
:104E6000C0F09380002B3FF400AE226AE07AB2F5E6
:104E7000006F4FEA800007D002F2FF72B2FBF0F140
:104E800000FB1122013222626268EAB94A4A216AB1
:104E9000A2FB00E201F2FF71D2080232B1FBF0FE88
:104EA00000FB1E11914238BF0321BFF4DEAD002B81
:104EB0007FF443AE94F82420002A3FF45EAE6A8863
:104EC000626184F8243058E620466FF0080100F053
:104ED00035FF0025CAE5B5F80310003118BF0121E0
:104EE0002173BB69002B3FF4C0AD98470025BDE599
:104EF000EA78287922444FF400611072EA7804EBD2
:104F0000820251612A7972BB637A002B7FF4ADADC6
:104F1000A37A002B7FF4A9ADE37A002B7FF4A5AD33
:104F2000257A84F82930002D7FF49FAD84F828502D
:104F30009CE56369B3F5006F7FF497AD012384F8B6
:104F4000243092E5681C424604F10C01FFF756FA42
:104F500005468BE5E9780831681C42462144FFF795
:104F60004DFA054682E584F82830EA78002A3FF4B5
:104F70007CAD84F82930002578E5614694F8293025
:104F800095E70121D9E50221D7E502218FE701212B
:104F90008DE77B69E9781B69304698477B69E9783A
:104FA0005B69044642463046984722460146681CE3
:104FB000FFF724FA054659E5CDCCCCCCC068704744
:104FC000036953F821301868704700BF036953F82C
:104FD0002130986810447047F0B50468D44E0D7ABB
:104FE000357040F2F117BC4200F08482B4F5F97FCD
:104FF0001DD340F20A25AC4200F0A68139D8B4F5A1
:10500000FA7F00F0C98140F2E580B4F5007F00F03E
:10501000638240F20125AC4200F0EF8140F2FD15C1
:10502000AC4200F04182002303601846F0BDB4F5A5
:10503000F47F00F0678240D940F2EB15AC4200F0FB
:10504000B281B4F5F67FC0F0B58040F2EF15AC4206
:1050500000F02282B4F5F87F80F0C081B4F5F67FCD
:10506000E1D1002A00F05D83057901274FF0000EA1
:10507000FCE0B4F5047F00F09E8161D940F2122576
:10508000AC4200F02F82C0F0A18140F21325AC4267
:10509000C9D1A84F002A00F0B28290F804C03D7830
:1050A00001244FF0000E02F80EC0DFF898E201353F
:1050B000EDB29EF800E03D7024E140F2E117BC4201
:1050C00000F0F981B4F5F17F80F09480002C00F0BD
:1050D000A581B4F5F07FA6D101250024002A00F0B7
:1050E000148307791755AB424FF00404047140F262
:1050F00077826F1C54550D7A8F4C2478AC4280F027
:105100009D8104EB440501F10904DFF830E214F855
:1051100005C080F804C02C44BB42CEF8004040F2E9
:1051200049827C1C002A00F091820579D555A34262
:105130004FF00005057140F22E8204F1010E6AE085
:1051400040F20B25AC4200F0518140F20F25AC42F9
:105150007FF469AF01240025002A00F0538207790B
:105160005755A3424FF00305057140F20F822F46B9
:1051700004F1010E402573451755057140F2FC817D
:105180002F460EF1010500249D4202F80E700471B5
:1051900080F0E88105F1010E5455664FCC6A3D78E8
:1051A000734514F805C080F804C040F2D1810EF1B7
:1051B000010478E740F2E915AC4200F03581B4F51E
:1051C000F57F7FF430AF002A00F0A982047901272F
:1051D000002539E0B4F5F97F00F0D68040F2F315F0
:1051E000AC427FF420AF002A00F0A78204790125A9
:1051F000002769E040F2E515AC4200F0E48040F29F
:10520000E715AC427FF40FAF002A00F09A820579CF
:105210004FF0010E0024494F15553C6873456578E1
:10522000057140F2AE810EF101070324BB4202F882
:105230000E50047140F29B817D1CD455AB420C7E14
:10524000047140F28A816F1C5455BB424C7E04713C
:1052500040F27981254607F1010E00247345D555AA
:10526000047140F26B8125460EF101070924BB420F
:1052700002F80E50047140F25C81254607F1010EE0
:1052800021247345D555047140F24E8125460EF117
:1052900001071124BB4202F80E50047140F23F8115
:1052A000254607F1010E01247345D555047140F2DE
:1052B000318125460EEB04070024BB4202F80E5054
:1052C000047140F204817D1CD455AB420F7D0771FF
:1052D00040F2F8806C1C5755194D164F91F814E0A8
:1052E00085F800E000253D70AE4500F2AC80DFF8A7
:1052F0004CE0144DDEF800E09EF801E085F800E097
:1053000000253D70AE4500F25F81DFF82CE0357876
:105310009EF800700137FFB28EF80070AF4280F047
:1053200069810925A342057140F2E381651CD5E638
:105330006E0700206F0700206D0700207007002017
:10534000680700206C07002001270024002A00F0D5
:10535000D58105791555BB424FF00504047140F223
:105360003A817D1CD455B44FB44C3F68247897F8EB
:1053700001E0A6455FD93C44BF78AB42E45D0471CF
:1053800040F213816C1CE7E6002A00F0D081057919
:1053900001274FF0000E8FE7002A00F0DE81077929
:1053A0000124002597E7002A00F0C38105794FF01A
:1053B000010E002751E7002A00F0B58107794FF070
:1053C000010E0024D6E601240027ABE6002A00F0F7
:1053D000C281077901254FF0000ED4E6002A00F0C3
:1053E000AE81057901274FF0000E52E7002A00F048
:1053F000AE81047901250027B4E7002A00F0A981D5
:10540000057901240027D5558C4FDFF838E23D7827
:105410009EF800E00135EDB23D7065E7DFF828E267
:1054200027468EF8004079E7002A00F07E81047953
:105430000125002701E700231B78FFDE7E4A0023B9
:1054400013601B78FFDE2DB20F6957F82570A34259
:105450003F7907714FEA850540F2C78004F1010EDC
:105460000AB1077917550C69754F6459246804719E
:105470007345A4B23C8040F2A2800EF10107002ADD
:1054800000F02B81250ABB42047902F80E40057119
:1054900040F286807C1CB6E7002A00F03E81057948
:1054A0004FF0010E0027EBE6644C25784FF0010E1B
:1054B000AD000024D4E7002A00F0478104790127D9
:1054C000002517E64FF4FA7303600120F0BD40F2A7
:1054D000F31303600120F0BD594C012724884FF0DD
:1054E000000ECCE74FF0010E0025002A00F09A8054
:1054F000047951E6002A00F0268105794FF0010E6B
:105500000027D0E6002A00F01681057901274FF028
:10551000000E8AE64FF4F97303600120F0BD40F2FB
:10552000F11303600120F0BD4FF4F8730360012014
:10553000F0BD40F2EF1303600120F0BD4FF4F673AD
:1055400003600120F0BD40F2EB1303600120F0BDC9
:1055500040F2132303600120F0BD4FF4F5730360A4
:105560000120F0BD40F2122303600120F0BD40F2A3
:10557000E91303600120F0BD40F211230360012014
:10558000F0BD4FF4F47303600120F0BD4FF40473D9
:1055900003600120F0BD40F2E71303600120F0BD7D
:1055A00040F2012303600120F0BD40F20F230360AD
:1055B0000120F0BD40F2E51303600120F0BD4FF47F
:1055C000007303600120F0BD0725A342057140F27E
:1055D0008B80671CBAE640F20B2303600120F0BD0C
:1055E00040F2E11303600120F0BD40F2FD130360BF
:1055F0000120F0BD40F2172303600120F0BD01241B
:105600003D7852E50325A3420571BFD901344025F9
:10561000A3420571B0D9651C0027AB420771A1D91F
:1056200004F1020E054FCC6A3D787345645D047148
:105630008ED90EF1010438E5700700206F070020B5
:105640006A070020680700206D070020A34202714E
:10565000A1D90134424D2D68A3426D78057190D9CE
:1056600001340325A342057181D901340D7E0571F2
:10567000A3427FF672AF01344D7E0571A3427FF6DF
:1056800062AF01340025A34205717FF657AF0134A4
:105690000925A34205717FF64CAF01342125A342B1
:1056A00005717FF641AF01341125A34205717FF6E4
:1056B00036AF01340125A34205717FF62BAF2C4490
:1056C0000025A34205717FF602AF01344D690571D3
:1056D000A3427FF6F7AE0134FEE5240ABB42047113
:1056E0007FF65EAF7C1C8FE640F20A230360012048
:1056F000F0BD4FF4F07303600120F0BD0524BB4200
:1057000004717FF668AF7D1C2DE60424AB42047162
:105710007FF666AF6F1C0D7AEEE40124BEE701242C
:10572000AAE70124B4E7012471E701249EE70124DC
:10573000C6E70124A6E7012493E70124C6E7012474
:10574000B2E7012486E70124B4E70127D4E4012568
:1057500009E6012458E614465DE70124BCE500BFD4
:105760007007002003680020D96170470368DB6977
:1057700003B1184706207047037AB3B1827A012A31
:1057800000F1090313D900B5C17A026A85B00B4450
:1057900011680191526858780292002301A903937D
:1057A000FEF772FC05B05DF804FB5B78FFDE0023BA
:1057B0001B78FFDE30B5036AC9781A6811700CCB0C
:1057C00087B000240132013B054620460392049332
:1057D000059400F0BBF9204603A9FEF755FC30B153
:1057E0000446002000F0BAF9204607B030BD044B53
:1057F000029501A90193FFF7F1F80446F1E700BF14
:105800005558000010B40B79012B0C4605D0022B23
:105810000BD006205DF8044B7047C369601C93E809
:1058200006005DF8044BFEF7E9BD036A601C93E8CF
:1058300006005DF8044BFEF7E1BD00BF10B404465E
:105840000B4654F8102B21460C325DF8044BFFF741
:10585000EBB800BF08B10320704710B504468B6A4F
:10586000084602219847204610BD00BF2DE9F041AF
:10587000044684B0006B266804F0DCF900283CD1B3
:10588000237A26680BB95B78FFDEA37A04F109025C
:105890000BB91B78FFDEE37A0C366FF00801054682
:1058A000304612F8038000F049FA206B04F0C2F988
:1058B000074618B1284604B0BDE8F08104F1100095
:1058C000FFF77CFB3A4601460546206B04F058F989
:1058D00095E80C00384601920293039700F036F9E0
:1058E000404601A9FEF7D0FB054688B1002000F034
:1058F00035F9284604B0BDE8F08106F10C006FF0E0
:10590000080100F01BFA0025284604B0BDE8F0812C
:105910003046082100F004FAE8E700BF2DE9F0471F
:10592000064650F8108BFFF749FB346B0546002202
:105930002946204604F024F90528F8D1002000F07B
:1059400005F9377A9FB34FF0000A53463A4693421F
:1059500006F1090528D295F80190B9F1000F18D089
:10596000002423464A4609E0AB782A19D05C030696
:1059700009D40134E3B299450BD96A789A42F3D835
:1059800000231B78FFDE013406F0A2F9E3B299454B
:10599000F3D80AF1010A5FFA8AF39F4205F1030581
:1059A00005D9327A9342D6D300235B78FFDE6FF0BD
:1059B000080108F10C0000F0C1F9002000F0CEF859
:1059C0000520BDE8F08700BF2DE9F04186B005460F
:1059D0000191006B029201A92E6804F05FF820B1DA
:1059E0001124204606B0BDE8F081F3685A0704464A
:1059F0003BD4F3681B07F4D496F83430002BF0D175
:105A00002B7A2E680BB95B78FFDEAB7A05F10902C1
:105A10000BB91B78FFDEEB7A0C3630466FF00801CD
:105A200012F8038000F08AF9286B04F003F90028CB
:105A3000D7D105F11000FFF7C1FA2246014607460B
:105A4000286B04F09DF897E80C002046039204931D
:105A5000059400F07BF8404603A9FEF715FB0446C9
:105A600030B1002000F07AF8BBE7FDF76DFDB8E734
:105A70003046082100F054F9F3E700BFF0B5037A8F
:105A8000046885B023B3837A00F1090713B3C37A9E
:105A90000C340E4620466FF008011546FF5C00F0FE
:105AA0004DF90023184602950393019600F04EF835
:105AB000384601A9FEF7E8FA054618B9204608213C
:105AC00000F02EF9002000F049F8284605B0F0BD9E
:105AD0005B78FFDE1B78FFDE036A5B680B60036A9E
:105AE0001868704710B3052823D8154B185CF8B117
:105AF000144B10B553F82040ECB123780BB9A01C1F
:105B000010BD0020FEF77EFF2278B2B100230133E2
:105B1000DBB220F8132014F8012F002AF7D101334B
:105B20005B00DBB243F44073038010BD064870474E
:105B3000704700207047204610BD40F20233F3E763
:105B4000F8EB0100E0EB01007AEB010072B6024ACB
:105B5000136801331360704774070020034A136809
:105B6000013B136003B962B6704700BF74070020A1
:105B70001EF0040F1CBFEFF309800AE0EFF308806A
:105B80000549064A884201D8904202D88D464FF016
:105B90000000034B184700000000042000E0032031
:105BA000C95B0000BFF34F8F0549064BCA6802F47A
:105BB000E0621343CB60BFF34F8F00BFFDE700BF30
:105BC00000ED00E00400FA0508B5034B9A6ADB6AB1
:105BD000FFF7E8FF08BD00BF00ED00E099B110B489
:105BE000B2FBF3F403FB1424A4B21CB109205DF84A
:105BF000044B704780E8120084608281C381204694
:105C00005DF8044B70470E20704700BF30B482B07F
:105C100050E8013F9DB2C48925448489A54228BF2C
:105C20002D1B0489A54202BFBFF32F8F002207E07E
:105C3000C5EA030540E80154002CE9D14FF0010208
:105C40008DF803200193019B9DF803200B602AB17E
:105C50000B880068184402B030BC704702F0FF03A4
:105C6000184602B030BC70470A884B889A4201D06F
:105C70000020704750E8012FC2EA024240E80123A9
:105C8000002BF7D10120704730B482B050E8023FBA
:105C90001FFAA3F5C488A54202BFBFF32F8F0022CD
:105CA0000DE0C48925448489A54228BF2D1BC3EA81
:105CB000054540E80254002CE8D14FF001028DF870
:105CC00003200193019B9DF803200B602AB14B88B0
:105CD0000068184402B030BC704702F0FF03184659
:105CE00002B030BC704700BF0A884B889A4201D08E
:105CF0000020704750E8022FC2EA224240E8022307
:105D0000002BF7D10120704700B550E8002F0B465B
:105D100040E8003E9EF0000FF7D110465DF804FB0E
:105D200000B550E8003F43EA010240E8002E9EF033
:105D3000000FF6D110465DF804FB00BF00B550E837
:105D4000003F03EA010240E8002E9EF0000FF6D16A
:105D500010465DF804FB00BF00B550E8002F02EBD1
:105D6000010340E8003E9EF0000FF6D110465DF8BA
:105D700004FB00BF00B550E8003F03EB010240E820
:105D8000002E9EF0000FF6D110465DF804FB00BF18
:105D900000B550E8003FA3EB010240E8002E9EF062
:105DA000000FF6D110465DF804FB00BF00B550E8C7
:105DB000003F8B422CBF5A1A1A4640E8002E9EF034
:105DC000000FF4D110465DF804FB00BF00B50123BD
:105DD00050E800EF4EEA030240E8002191F0000F86
:105DE000F6D170465DF804FB00B5002350E800EFE3
:105DF0000EEA030240E8002191F0000FF6D1704650
:105E00005DF804FB00B5002350E8002F02EA030E02
:105E100040E800E191F0000FF6D170465DF804FB18
:105E20002DE9F0438368D3F86461C6F340068BB074
:105E3000002E49D1012940D8274C284D284B2D1B35
:105E4000A3FB05352D0935D005EB4505DFF8989006
:105E5000074604EBC5054FF064082368D4F808C072
:105E600019681A792369099363680692ACEB010EED
:105E700002EB8202ACEB030CA08A00905FFA8EF179
:105E800002EB8202039108FB01FE9200BEFBFCF1D3
:105E9000B2FBFCF2029105920196CDF81CC0CDF840
:105EA00010C0099B18344A460821384601F072F99F
:105EB000A542D2D10BB0BDE8F0830A4A02210BB053
:105EC000BDE8F04301F066B9002211460BB0BDE811
:105ED000F04302F0C9BC00BF0031020018310200DB
:105EE000ABAAAAAA28EC01003CEC0100B8B130B47E
:105EF000416882680468521AD2B2531E2160DBB234
:105F000042B101680A685C1E551C0D601370E3B253
:105F1000FF2BF6D103680020187130BC70470E20AB
:105F2000704700BF70B504460020FFF70FFE2368DE
:105F300061681A688A4215D9511E19602168A368E0
:105F40000D680879A68A12F8012CE4685B1BDBB2A5
:105F5000984206FB024400D20B710020FFF7FEFDC1
:105F6000204670BD00240020FFF7F8FD204670BDDC
:105F700038B5054600200C46FFF7E8FD2A6813688F
:105F8000591C1160E968AA8A641AB4FBF2F41C7007
:105F90000020BDE83840FFF7E1BD00BF30B18A689E
:105FA00092F8643143F0200382F86431704700BFF7
:105FB0000968006817F074BE2DE9F0410546806855
:105FC000484E82B000248022214694308DF8034050
:105FD00017F0F8FB2869444902F054FF286902F0E1
:105FE00045FF46F001064FF47A786868036801229D
:105FF0001F690DF1030101ABB847019AD2B19DF8B9
:106000000320AB681B2A04F1010105D093F894002A
:106010001B28EAD1522A1CD02344CCB2092C83F885
:106020009420E2D9AB68002283F89420042002B0C7
:10603000BDE8F0814FF6C010B047019B002BD4D1D2
:1060400008F1FF371FFA87F8B8F1000FCDD10D2006
:10605000EDE72344002283F89420AE6896F895304B
:106060005B2B05D00B2086F8942002B0BDE8F081B0
:1060700006F19507022304E05FFA8EF3802B8AB2C3
:106080002ED017F8014F02EB8201A4F130003B2C17
:1060900003F1010E00EB4101EED15FFA8EF3180619
:1060A0001ED4002002E088B2190619D4F41800EBBF
:1060B000800194F89440013304EB41013039DBB2A4
:1060C000002CF0D1FA2828BFFA203072AB68FA2AE7
:1060D00088BFFA229A72AB68002083F89400A6E782
:1060E0000C20A4E790ED010064ED0100F8B50C462A
:1060F00001F1080508B317F0E5FDC0B20146E27CE6
:10610000637BA77CA0730A440F4492FBF3F603FB66
:10611000162297FBF3F0013203FB1073002162F3A8
:1061200007010133013663F30F2166F31741013094
:1061300060F31F61A1602846F8BD0146DFE700BF9C
:106140002DE9F84F0746002003468846144638607C
:106150000646814605E084F8009001343B680B2B2D
:106160002AD8257845B317F0D1FA2844437813F09C
:106170000803F0D13A68511C396048F8224025786C
:106180001E46002DEAD0EEB9272D2FD05C2D04F14C
:106190000106204635D0222D28D017F0B7FA284422
:1061A00043781B0700F1AE8014F8015F002DEBD19E
:1061B0002E463B680B2BD4D9002248F823203046CA
:1061C000BDE8F88FAE4204D05C2D657826D001344E
:1061D000D7E7204617F076FD611C0246204617F0EF
:1061E000D7FA2578002DE3D0272DCFD1204617F000
:1061F00069FD611C024620462E4617F0C9FA257833
:10620000BFE717F05FFD31460246204617F0C0FA9F
:1062100065783446002DB7D12E46CAE7AE4224D069
:10622000302D2FD02B46782BD1D1A278A2F130037C
:10623000DBB2092B4ED9A2F16103052B64D9A2F17F
:106240004103052BC3D8373AD5B2E278A2F1300327
:10625000DBB2092B45D843EA0515EDB24FF0030A2E
:106260004FF0040B2046A24428E0204617F02AFDF8
:1062700004F1010A02465146204617F089FA657872
:1062800054467EE7A378A3F13001C9B20729CAD8E2
:10629000E378303BDBB2072B42D82279303AD2B2D6
:1062A00043EAC103072A5BB23FD842EAC303DDB227
:1062B0004FF0050B0423204604EB030A17F002FD00
:1062C000821CA2EB0B025146204617F061FA2570A2
:1062D00065787CE71D46E278A2F13003DBB2092B3A
:1062E000B9D9A2F16103052B11D9A2F14103052B04
:1062F00020D8373A42EA0515EDB24FF0030A4FF0C5
:10630000040BAFE7002629E7573AD5B2E3E7573A3F
:1063100042EA0515EDB24FF0030A4FF0040BA1E776
:106320000D4602234FF0030BC5E7DDB24FF0040B1F
:106330000323C0E74FF0020A4FF0030B92E700BFC0
:10634000002900F0DA802DE9F04F8B4685B09246A7
:1063500006464C1E002700E0013717F0D7F914F865
:10636000013F184443781B07F6D45FFA8AF3019380
:10637000584617F0A7FCB36893F80D80C01BA8EB34
:106380000A08404560D90BEB0709002400E00134FE
:1063900017F0BCF919F8013B18440AEB04014278E4
:1063A000100707EB040502D50A2B07D0A046B368F7
:1063B0005B7B9942EBD307EB08054446306902F05A
:1063C00055FDA4B103AB4FF00008009599467068E5
:1063D000036807EB0801DD6859444B462246A8478D
:1063E000039B9844FBB1E41A002CF0D1009D0BEB09
:1063F000050400E0013517F089F914F8013B184451
:1064000043781B07F6D4404A4049306902F03AFD10
:10641000019B0BB92F46ABE71A463D49306902F0A4
:1064200031FD2F46A4E7B2681378032BDCD0D2F8F5
:1064300064319906FBD592F864316FF3451382F805
:106440006431002CC3D1D1E70BEB070188B11BF8F5
:1064500007300A2B0BEB070150D00B46002403E05A
:1064600013F8012F0A2A0FD00134A04207EB0405CC
:10647000F6D1306902F006FD3069234A234902F063
:1064800001FD05B0BDE8F08F306902F0EFFC4FF080
:1064900000080DF10C0AA9467068036807EB0801B3
:1064A000DD68594453462246A847039BA3B198444C
:1064B000E41A002CF0D14D46134A1449306902F019
:1064C000E1FC019B013523B11A461149306902F004
:1064D000D9FC0BEB0501CCE7B2681378032BE8D0AD
:1064E000D2F864319D06FBD592F864316FF3451301
:1064F00082F86431002CCFD1DDE7704730693D462A
:1065000002F0B4FCD8E700BF40ED0100B8F0010094
:1065100098ED01000CB4F0B585B00AAB816853F872
:10652000045B0193D1F864315B07044602D5CB7B51
:10653000082B09D12946206901AA02F043FD05B0C4
:10654000BDE8F04002B0704702220F31684617F0F4
:1065500014F9A368DA7B082A0AD02B4A2B49029245
:1065600008220391DA73206929496A4402F08AFCFF
:1065700001AA2946206902F025FD9DF80030A26895
:10658000002B39D0D17B994214D01F4902916D2044
:106590000021332603F12F058DF80E008DF80F1022
:1065A0008DF80C608DF80D50D3732069184902AA3C
:1065B00002F068FC9DF80130002BC0D0A268117C6D
:1065C0009942BCD01B218DF808105B27342603F1BB
:1065D0002F056D2000218DF80C008DF80D108DF821
:1065E00009708DF80A608DF80B5013742069084902
:1065F00002AA02F047FCA2E7D3732069054A0449C6
:1066000002F040FCD6E700BF1B5B313B33376D0027
:10661000B8F0010044ED01002DE9F047804686B056
:10662000544817F04FFB0446534817F04BFBD8F87B
:10663000083052495B68524A1B680091241A0821AD
:106640004046FFF767FFD8F808305B681868A4B2C7
:10665000002800F08D8017F035FB85B2474817F011
:1066600031FBD8F808305B682844596882B240464C
:10667000FFF766FE434A08214046FFF74BFF3E48BE
:1066800017F020FB02300444A4B23A4B00933E4A78
:10669000234608214046FFF73DFFE21C92B23B49EA
:1066A0004046FFF74DFED8F808305B689F68002F22
:1066B00054D0002528462E460FE07C6860592C44B3
:1066C000B8B117F0FFFAB04205D92668304616B1C6
:1066D00017F0F8FA86B2103548463B7800F1010908
:1066E000002BEAD07B6802A99847029808B102AC57
:1066F000E7E7B9F1010F31D0254ADFF88C90082186
:106700004046FFF707FF3B78B51C0024ADB24FEAC7
:10671000041AD3B97B6853F80A209A44F2B10821CD
:1067200000922B464A464046FFF7F4FEDAF8043062
:10673000721D1946404692B29BB1FFF701FE3B78AD
:1067400001344FEA041A002BE4D002A97B682046EA
:106750009847029A12B10DF1080AE0E706B0BDE8C9
:10676000F0870C4A0C49D8F8100002F08BFBE6E7E2
:10677000054673E7A0ED0100D0F001006CED0100CB
:1067800000F00100C4EF0100D0EF0100D8EF0100DC
:10679000ECEF010040ED0100B8F00100022910B556
:1067A00004460BD020690A4A0A4902F06BFB2069B3
:1067B000094A0849BDE8104002F064BB8368D3F879
:1067C00064319B07EED5BDE81040FFF725BF00BF41
:1067D0004CED0100B8F0010050ED0100F8B50546A0
:1067E0000068AC68002843D017F06CFAC0B20646C7
:1067F00000F1010EE37C617BA77CA673034493FB4D
:10680000F1F201FB12333844013390FBF1FCDBB2AF
:1068100001FB1C010027013163F30707501C61F3E2
:106820000F27C1B20CF1010C61F317476CF31F671E
:106830007345A76019D001291ED8B34208D8013684
:10684000F31A13F0FF021FD1AB680022DA74F8BD0F
:10685000013B9E1B16F0FF02F6D00F49286902F09B
:1068600011FBAB680022DA74F8BD0129E3D1F8BD51
:1068700006464FF0010EBDE7D2B20849286902F082
:1068800001FB237AA67BD8E70549286902F0FAFACA
:10689000AB680022DA74F8BD80ED010078ED0100EC
:1068A00098ED0100F0B585B00025019502958DF8B1
:1068B0000C500446836871BBD3F86031002B00F0A4
:1068C00088800E46FFF78AFFA26801AFD2F8600108
:1068D00033460922394603F03BF8A368029AC3F80D
:1068E0006021A368D3F860019D7C002833D103F1B7
:1068F000940017F0E7F9002840F08F80A36818751E
:10690000A36813F1140003D017F0DCF9A368C0B238
:106910008DF80C0031E0D3F86011D3F85C2191427E
:1069200057D0D3F85831002B53D0FFF757FFA36847
:10693000D3F8600100285DD001AF2B46092239460B
:1069400003F006F8A368019AC3F86021A3689DF8D4
:106950000C50D3F8600139460023092202F0F8FFF9
:10696000A1689DF80C20D1F860010923143101328F
:1069700002F0EEFF9DF80C00A368D874A368A8424B
:10698000987431D3A3682E4A204614330821FFF7A8
:10699000C1FDA2682068D57CE8B117F093F9A26820
:1069A000537B2844B0FBF3F503FB150060B120686E
:1069B000957C18B117F086F9A3685B7B2844B0FB7F
:1069C000F3F203FB120020B920691E4A1C4902F0B1
:1069D00059FA05B0F0BD537BB5FBF3F103FB11553C
:1069E000002DF1D0957CE9E7174A1549206902F09E
:1069F00049FAC7E703F1140017F064F9A368C5B2B8
:106A0000D3F85821C3F8602175B9A36883F894506E
:106A1000A36801AFD3F860019DE7A06800F194017D
:106A2000143017F047F96BE7A06800F114019430B7
:106A300017F040F9A36801AFD3F860018BE700BFFE
:106A4000B8F0010040ED010034ED0100F8B5044656
:106A50000068A668002841D017F034F9C0B2034698
:106A6000F17C727BB57CB07319442B4491FBF2F03E
:106A700002FB101193FBF2F5013102FB1533C9B291
:106A800000270133DBB2013061F30707C0B263F3C3
:106A90000F276A1C60F31747D2B262F31F6799424F
:106AA000B76018D0904203D2121A12F0FF0217D129
:106AB000994207D85B1A13F0FF021AD1A3689A7C97
:106AC000DA74F8BDCB1A13F0FF02F7D00B49206936
:106AD00002F0D8F9F2E79042E4D1F2E70346BFE7CB
