:1010000000000420E112000009130000F174000048
:101010000D1300000F13000011130000000000006A
:10102000000000000000000000000000131300009A
:1010300015130000000000001713000089040100D0
:1010400045F100001B13000055F100001B130000C8
:101050001B1300001B13000001EA00001B1300001B
:101060001B1300001B1300001B1300001B130000C8
:101070001B1300001B1300001B1300001B130000B8
:101080001B1300003D4300001B1300001B13000056
:10109000DD4300001B1300001B1300001B130000A6
:1010A0001B1300001B1300001B1300001B13000088
:1010B0001B1300001B1300000000000000000000D4
:1010C0001B1300001B1300001B1300001B13000068
:1010D0001B1300001B1300001B1300008DD7000022
:1010E0001B1300001B13000019C7010000000000C3
:1010F000000000001B130000000000001B13000094
:1011000000000000000000000000000000000000DF
:1011100000000000000000000000000000000000CF
:1011200000000000000000000000000000000000BF
:1011300000000000000000000000000000000000AF
:10114000000000000000000000000000000000009F
:10115000000000000000000000000000000000008F
:10116000000000000000000000000000000000007F
:10117000000000000000000000000000000000006F
:10118000000000000000000000000000000000005F
:10119000000000000000000000000000000000004F
:1011A000000000000000000000000000000000003F
:1011B000000000000000000000000000000000002F
:1011C000000000000000000000000000000000001F
:1011D000000000000000000000000000000000000F
:1011E00000000000000000000000000000000000FF
:1011F00000000000000000000000000000000000EF
:1012000010B5054C237833B9044B13B10448AFF340
:1012100000800123237010BDA00300200000000007
:10122000047002000C4B43B10C480D4910B5AFF3EC
:1012300000800C48036823B910BD0A48036833B91D
:101240007047094B002BF7D0BDE810401847064BFC
:10125000002BF5D0184700BF00000000047002000A
:10126000A40300209C02002000000000154B002B6E
:1012700008BF134B9D46A3F5803A00218B460F46CD
:101280001348144A121A1EF0BFFE0F4B002B00D059
:1012900098470E4B002B00D09847002000210400F7
:1012A0000D000D48002802D00C48AFF300801EF05E
:1012B00027FE200029000FF0F7F81EF00DFE00BFFA
:1012C00000000800000004200000000000000000F2
:1012D000A0030020602C012000000000000000009E
:1012E0000649074A074B9B1A03DD043BC858D050F8
:1012F000FBDC10F0F1FAFFF7B9FF0000B871020053
:1013000008000020A0030020FEE7FEE7FEE7FEE75E
:10131000FEE7FEE7FEE7FEE7FEE7FEE7F0B595B085
:10132000154600240F4608461E460AF0FDFA3846C8
:1013300023460822089505A91A9D09960D950A9439
:101340008DF82C400C940AF04BFB9DF81430079A52
:101350000292012103F00302069803908A428DF85D
:10136000111028D0022A04D038460AF0E1FA15B04C
:10137000F0BDBDF81650C3F3C2038DF81030C5F3AD
:1013800089150826082D2C4628BF082433462246F6
:101390000EA938460AF024FB2D1B214608AB02AAF1
:1013A0000EA8264401F098FB002DEBD138460AF038
:1013B000BFFA15B0F0BDBDF81460059DC6F38316E5
:1013C000C3F3C204B2000EA9384608238DF81040BA
:1013D000C5F395250AF004FB08AB00933246284676
:1013E0000EA902AB01F0D2FABEE700BF704700BF02
:1013F00000B583B0044B0093044A4023FFF78EFFEF
:1014000003B05DF804FB00BF11140000C00300200E
:1014100038B50E480E4D03780E4CEB5C0025257058
:10142000D2B253B90C300EF057F958B90A4B1B78A9
:1014300013B12378002BFCD038BD04300EF09EFC95
:101440000028F3D001F0F4FDF0E700BF0800002011
:10145000602B012000040020BC03002070B513485D
:10146000134A0378D35C88B0DBB90C300EF0B6F8C1
:10147000104D0FCD6C460FC495E80F0008AD142633
:1014800045F8206D84E80F002946002207480AF03D
:1014900071FE08B101F0CCFD074B00221A7008B0B4
:1014A00070BD04300EF0EAFBE2E700BF0800002048
:1014B000602B0120CC120200BC030020064B8B6085
:1014C00004284FF00003CB604B609CBF034B53F8E4
:1014D00020300B60704700BFFC1502002016020090
:1014E000C368DB6800225A71704700BFC368DB68BD
:1014F00001225A71704700BF30B40E4B0E4D0F4C95
:101500008C60ED1A00222D09CA604A600A600BD077
:1015100003EB0515DC682479FF2C02D0904205D03E
:1015200001321033AB42F5D130BC70479B680B6081
:1015300030BC704718710200387102003416020086
:101540000129034604D08168D1F86411890704D5C4
:1015500000221846114609F069B800B583B0136837
:101560005168054A019100920221044A07F0BAFB32
:1015700003B05DF804FB00BF301302002413020027
:101580008368D3F864319B0733D42DE9F0471B4CB3
:101590001B4E361B360982B028D00746DFF868A0FC
:1015A000DFF86890DFF8688004EB06160DE05D79DF
:1015B000A368CDF804E0002D14BF55464D460095B4
:1015C000103407F08FFBA64210D0E36893F804E0D4
:1015D000BEF1FF0F42464FF008013846E7D1A3683D
:1015E000084A103407F07EFBA642EED102B0BDE8F7
:1015F000F0870022114609F019B800BF18710200E7
:10160000387102005C1302004813020050130200FC
:101610007C130200F0B53248324D85B006F058F91F
:10162000314806F055F96B68AE6803EA0600C11C44
:1016300005EB810215F8214014F004040ED0117856
:1016400001F0030101293BD0022903F1020700F157
:10165000030126D005EB8102002CF0D105EB8000C0
:101660005A1CC1680191324005EB820201F003016E
:10167000D2680292012903F1020429D0022925D15E
:10168000BDF80630BDF80A60C3F38913033304EBD9
:101690009304154806F02AF900B16C60304605B095
:1016A000F0BD538807EB931306EA0300C11C05EB5A
:1016B000810215F8214004F00404002CBFD1CDE7CD
:1016C00011880233C1F383110B44EDE70026E0E7F4
:1016D000BDF80430BDF80A60C3F383131C44D8E797
:1016E000EC140020D4040020E81400202DE9F0417F
:1016F000104C114D52F8046C2D1B2D09074610D0CB
:1017000004EB051502E01034AC420AD0A168304663
:101710001EF0E8FE0028F6D1E36801225A71BDE808
:10172000F08133463846054A0221BDE8F04107F012
:10173000D9BA00BF18710200387102000C13020000
:101740002DE9F0410F4C104D52F8046C2D1B2D0962
:1017500007460FD004EB051502E01034AC4209D067
:10176000A16830461EF0BEFE0028F6D1E36858712D
:10177000BDE8F08133463846044A0221BDE8F04115
:1017800007F0B0BA18710200387102000C130200A1
:1017900070B4114C114E124A8A60A41B0023E40855
:1017A000CB604B600CD00F4D2A88904204D110E0E2
:1017B00035F82320904206D001339C42F8D1002412
:1017C0000C6070BC704706EBC3031C680C6070BCF7
:1017D00070473346F9E700BF1871020050700200ED
:1017E000FC150200A00200202DE9F04FCB68384E16
:1017F000DFF808915B79A6EB090685B08A46F60802
:101800008046002B5FD0334A334B0821404607F017
:1018100069FA324A0821404607F064FA8EB3304D27
:10182000B70000240023EA5AA24230D004339F427A
:10183000F9D12C49002335F82320A24237D00133B7
:101840009E42F8D10020DFF89CC08646002335F880
:101850002320A24218D001339E42F8D10023224A0D
:10186000DFF89CB00091864588BF5A460292CDF8B9
:1018700004C001341D4A0821404607F033FAB4423F
:10188000D0D105B0BDE8F08F59F83330E7E7DAF88A
:101890000C2017491279595802EB42020723934052
:1018A0000B40D340DBB2134A52F82310C2E709EBD6
:1018B000C30393F806E00F4B7046032828BF0320AC
:1018C00053F820C0C2E70C4A022107F00BFA9AE74E
:1018D00018710200701502006415020090150200D4
:1018E000A0020020441502009C130200D015020043
:1018F000040300200C160200501502005070020074
:101900004C15020013460A46C168FFF76DBF00BFC1
:101910002DE9F047124C134D52F8046C2D1B2D0984
:10192000804615D01746894604EB051502E01034B1
:10193000A5420DD0A16830461EF0D4FD0028F6D196
:101940003B464A4621464046BDE8F047FFF74CBFBC
:1019500033464046044A0221BDE8F04707F0C2B9C9
:1019600018710200387102000C13020002B97047AE
:101970002DE9F04F9846CB687F491C7985B0154614
:10198000164683460722D8F800001EF0C5FD002841
:1019900040F0D880012D00F0E380784D81460A2286
:1019A00055F8041BD8F804001EF0B6FD70B109F11B
:1019B0000109B9F1050FF2D1D8F80430704A584640
:1019C000022105B0BDE8F04F07F08CB95FFA89F34A
:1019D000022E00932BD16B4D6B4B5B1BDB0823D08E
:1019E00004EB440407224FEA830802FA04F301934C
:1019F000009B664FDFF898A1A34002932E46002477
:101A0000A946B379009DAB4252464FF002015846B9
:101A100054D259F81430043407F064F9A04506F1A3
:101A2000080607F10407ECD105B0BDE8F08FFBD93B
:101A30004FF0020A04EB44040723A340514D524FD8
:101A40000293009BCDF804B07F1BA34008EB8A08EB
:101A5000FF080393B146D8F8006047B3AB460024B3
:101A600004E00134A7420BF1080B1ED020223146BE
:101A700055F834001EF050FD0028F2D1A74214D0D2
:101A80009BF80620009B9A423BD2DBF80030404A8C
:101A90000198022107F026F90AF1010AD14508F15F
:101AA0000408D8D105B0BDE8F08FD8F80060394AF5
:101AB00001983346022107F015F9EDE73A68029BD9
:101AC0000199354853400B405340C3F3C202C3F35E
:101AD00082118A4238BF0A4603F007018A4238BFA2
:101AE0000A46C3F3422120188A4204F1040438BF95
:101AF0000A46444506F1080647F8043B428080D177
:101B000092E7224B029853F82420039B22491F4E50
:101B1000534003405340C3F3C202C3F382108242D6
:101B200038BF024603F00700824238BF0246C3F3C3
:101B3000422001EB8401824238BF024646F824303D
:101B40004A80A9E708221549D8F800001EF0E4FCF5
:101B500070B9012D00903FF43EAF4FF0010A69E7E4
:101B60000F4A5846022105B0BDE8F04F07F0BAB859
:101B7000D8F800300B4A22E7AC1402000C16020021
:101B800000150200507002001871020004030020CA
:101B900020150200EC140200A0020020CC14020068
:101BA000B4140200D414020013460A46C168FFF7B9
:101BB000DDBE00BF2DE9F047124C134D52F8046C06
:101BC0002D1B2D09804615D01746894604EB0515B7
:101BD00002E01034A5420DD0A16830461EF082FC10
:101BE0000028F6D13B464A4621464046BDE8F0472C
:101BF000FFF7BCBE33464046044A0221BDE8F04729
:101C000007F070B818710200387102000C1302005E
:101C10002DE9F84F254B264803F5815141F218066E
:101C200041F21404002240F2FF359A511A605A60C2
:101C30009D601A510A7009F013FE834610B1584690
:101C4000BDE8F88FDFF87C801A4F1B48A7EB080728
:101C50000AF048F8FF08F2D0DFF860A05E460025E1
:101C60002C4608EBC609A6424FF0140208D058F8DB
:101C70003410D9F800001EF04FFC0028C8BF013511
:101C80000134A742EFD12AF826500136B742E6D1F7
:101C90000A4B0B490AEB870700225A8004339F4204
:101CA00041F8042BF9D15846BDE8F88FD404002040
:101CB0007871020018710200F0150200A0020020E5
:101CC000040300205070020021B9114B03EBC00047
:101CD0000068704730B40F4A0D4C121BD2080CD06C
:101CE0000D4D2B88834210D0002303E035F82310DC
:101CF000814205D001339A42F8D1002030BC7047B0
:101D000004EBC300006830BC70472046FAE700BF10
:101D10005070020018710200A0020020094B013926
:101D200003EBC00003290BD8DFE801F0020806042A
:101D3000022070474079704700797047042070474F
:101D400000207047507002002DE9F04FA84C94E835
:101D50000C009A4285B000F0E18041F218030022A5
:101D6000E250BFF34F8F6368A56803EA0501CA1C00
:101D700004EB820614F8222050071BD5D4F800E0AB
:101D80009C4F327802F00302012A49D0022A03F163
:101D9000020202D1738802EB931305EA030138684B
:101DA000CA1C04EB820628B99E453FD914F82220AC
:101DB0005207E6D404EB81015A1C2A40CE680196F2
:101DC00004EB8202F6B2D268029206F00302022A03
:101DD00003F102092FD0012A00F0A48041F2100380
:101DE000E5583DB12B6828469B689847EB681D680D
:101DF000002DF7D1804B5B88012B09D97F48804BA0
:101E00008049C01AC008000440F0020000F068FBDE
:101E100060682368C01A18BF012005B0BDE8F08FC4
:101E200032880233C2F383121344B6E7C4F804E0E5
:101E300005B0BDE8F08FBDF806307348C3F3891ACA
:101E4000BAF1500FD046A8BF4FF0500868F38F1377
:101E500008F10801ADF8063009F004FDC6F3C2062A
:101E600007460028BAD025EA090B0BF1010B09F04F
:101E70005BFD4FEA8B0B0023082201A9384609F0CD
:101E800079FDD84540F28D80BBF1000F40F098807D
:101E9000424608235D49384609F06CFD0AF1030803
:101EA00009EB980841F21803E358002B40F08480B6
:101EB00041F21003E5580DB3DFF854A14FF00709C4
:101EC000EB685A79BAB11A79BDF8080002EB420101
:101ED0005AF8200009FA01F2052E02EA000222FA5D
:101EE00001F208BF032696423946284603D82B68DC
:101EF0001B689847EB681D68002DE1D1384609F052
:101F000017FD002005F0E2FA41F21803E3580BB97F
:101F1000C4F80480002005F0E1FA79E7002005B05C
:101F2000BDE8F08FBDF804603748C6F38313062B75
:101F300028BF0623991C63F389168900ADF8046055
:101F400009F090FCC6F3C206074600283FF446AFEE
:101F500009F0EAFC0023082201A9384609F00AFD2D
:101F6000BDF8043013F4707F3FD04FF0000B4FF0FA
:101F7000080A05EA09010331534604EB81010422F2
:101F8000384609F0F7FCBDF804300BF1010BC3F340
:101F9000831309F101085B450AF1040AC146E8D838
:101FA00080E705EA0901033104EB81014246082379
:101FB000384609F0DFFC71E7384609F0B9FC27E73D
:101FC00005EA09010331A8EB0B0504EB81015A4630
:101FD0003846EDB2082309F0CDFC2A460BF1080380
:101FE0000A49384609F0C6FC58E7C8465AE700BF18
:101FF000D4040020EC140020B802002080700200FD
:10200000507002007C17020078710200E00400208A
:10201000040300202DE9F0438368D3F86441C4F33E
:10202000400489B0CCB901AB054605AA43F227416B
:1020300041F26E000594019406940794029402F014
:1020400009F9034680B10A2829D02846504A0221BE
:1020500006F048FE09B0BDE8F0830022114608F002
:10206000E5FA09B0BDE8F08303A905A8039304933A
:1020700001F054FF0028E8D14648474A0499121A53
:102080001DF09DFF05A801F087FF0028DDD128463F
:10209000424A082106F026FE09B0BDE8F083404B15
:1020A0005B88012BD1D9DFF810913E4B3E4FD9F818
:1020B00008602046FF1A05F009FAD9F80820D9F877
:1020C0000430D9F8008013440133A3EB0803012B3B
:1020D0004FEAD70759D8354C0121204605F0BEFB01
:1020E000FFF798FA0146204605F0B8FB99E80A0088
:1020F000D9F80820134401335B1A012BECD90124D1
:102100000A40033244F004036FF3891302310020C4
:1021100049F82230C9F8001005F0E0F90021234801
:1021200005F066FB80F3100008EB0403334009EB75
:102130008303BFB206EA0806033647EA0040D860C8
:1021400019F826301A481B49022262F3C50309F820
:10215000263039F826306FF3891329F8263059F8DC
:10216000262060F39F22134664F301036FF382037A
:1021700049F8262009F826300B78002B3FF465AF8C
:10218000FFF7E2FD0028FBD15FE74146B7E700BF5C
:10219000E01302000403002068030020C8130200BB
:1021A000B80200205070020080700200F01400207D
:1021B000A0130200F4140020D40400202DE9F04FF5
:1021C0003F4C83B08046002089460193A668934621
:1021D00005F07CF9A168636827680B440133DB1BB9
:1021E000042B6AD8374D0121284605F037FBFFF74D
:1021F00011FA0146284605F031FB94E80C00A1686D
:102200000B4401339B1A042BEDD9012511404FF0EB
:10221000030A033145F0040305326AF389130020F1
:1022200044F82130226005F059F9B81C07EB0A0E7A
:1022300030400EEA060E3A1D324004EB800004EBFB
:102240008E0E04EB8202019BC0F80CB00021CEF888
:102250000C301C480C9BD36005F0CAFA80F31000C8
:102260007A19324004EB820200043E40564440EAB0
:102270001840D06014F82620134968F3C50204F80A
:10228000262034F826206AF3891224F8262054F8F0
:10229000262069F39F22134665F301036FF382033F
:1022A00044F8262004F826300B781BB1FFF74CFDCC
:1022B0000028FBD103B0BDE8F08F3A46A5E700BF88
:1022C000D4040020F0140020F41400202DE9F04F75
:1022D00087B0464C109D0393804699460020119B81
:1022E000029292460593A66804958B4605F0EEF897
:1022F000A2686368276813440133DB1B052B73D87E
:102300003B4D0121284605F0A9FAFFF783F9014664
:10231000284605F0A3FA94E80A00A26813440133A2
:102320005B1A052BEDD90A400125D31C45F0040E9C
:10233000042262F3891E0631002044F823E0019252
:10234000216005F0CBF8B91C07F1030C07F1040E6E
:1023500031400CEA060C0EEA060E7B1D334004EBFE
:10236000810104EB8C0C04EB8E0E04EB8303109ABA
:10237000C1F80CA01E48CCF80C900021CEF80C201F
:10238000119ADA6005F034FA80F310007B193340BB
:1023900004EB830300043E40033640EA1840D86053
:1023A00014F82630019A134968F3C50304F826305F
:1023B00034F8263062F3891324F8263054F82620A6
:1023C0006BF39F22134665F301036FF3820344F816
:1023D000262004F826300B781BB1FFF7B5FC002847
:1023E000FBD107B0BDE8F08F39469CE7D40400204C
:1023F000F0140020F41400202DE9F047354C8046FD
:10240000002092468946A56805F060F8A2686368D6
:10241000276813440133DB1B022B58D82E4E0121B1
:10242000304605F01BFAFFF7F5F80146304605F097
:1024300015FA94E80A00A268134401335B1A022BD0
:10244000EDD901260A40033246F0040366F38913EE
:1024500044F8223003310020216005F03FF8BB1C16
:102460002B4004EB830300211B48C3F80CA005F0AC
:10247000BFF980F31000BB192B4004EB8303000469
:102480003D40033540EA1840D86014F82530134920
:1024900068F3C50304F8253034F8253066F3891352
:1024A00024F8253054F8252069F39F22134666F35B
:1024B00001036FF3820344F8252004F825300B78DC
:1024C0001BB1FFF741FC0028FBD1BDE8F08739467E
:1024D000B7E700BFD4040020F0140020F41400205B
:1024E0002DE9F843DFF8DC90074600208846D9F84C
:1024F000085004F0EBFFD9F80820D9F80430D9F8D7
:102500000060134401339B1B012B54D82B4C012139
:10251000204605F0A3F9FFF77DF80146204605F0B7
:102520009DF999E80A00D9F80820134401335B1A91
:10253000012BECD901240A40033244F004036FF369
:10254000891349F8223002310020C9F8001004F044
:10255000C5FF0021194805F04BF980F3100033192D
:102560002B4009EB830300043540033540EA174054
:10257000D86019F82530124967F3C50309F82530EA
:1025800039F825306FF3891329F8253059F82520BB
:1025900068F39F22134664F301036FF3820349F843
:1025A000252009F825300B781BB1FFF7CDFB00285B
:1025B000FBD1BDE8F8833146BCE700BFF014002032
:1025C000F4140020D40400202DE9F0478368D3F8E8
:1025D0006441C4F3400488B014BB9A4B9A490693F3
:1025E000C91A890807910646984D029402AA6B46BB
:1025F00043F2274141F26E00009403940494019445
:10260000059501F027FE804688B10A2800F09980E0
:1026100030468F4A022106F065FB08B0BDE8F0871E
:102620000022114608F002F808B0BDE8F08702A8C1
:1026300005A901F06DFD874B5B88022B81460AD806
:10264000B9F1000FE4D13046834A082106F04AFB75
:1026500008B0BDE8F087814D814B824FAC684046A1
:10266000FF1A04F033FFAA686B68D5F800A0134482
:102670000133A3EB0A03022B4FEAD7075FD8DFF839
:10268000E8810121404605F0E9F8FEF7C3FF014665
:10269000404605F0E3F895E80A00AA6813440133C0
:1026A0005B1A022BEDD94FF001080A40033248F0C3
:1026B000040368F3891345F82230033100202960B0
:1026C00004F00CFF0AF10203234005EB8303002111
:1026D0006548C3F80C9005F08BF880F310000AEB06
:1026E0000803234005EB8303BFB204EA0A04033462
:1026F00047EA0040D86015F824305C485C49032262
:1027000062F3C50305F8243035F8243068F38913E3
:1027100025F8243055F8242060F39F22134668F3EF
:1027200001036FF3820345F8242005F824300B7869
:10273000002B85D0FFF708FB0028FBD180E751462E
:10274000B1E702A805A901F04DFC424B5B88022BC2
:1027500081467FF675AF414D414B424F2046FF1AEF
:10276000AC6804F0B3FEAA686B68D5F800A0134407
:102770000133A3EB0A03022B4FEAD70760D8DFF837
:10278000E8800121404605F069F8FEF743FF014665
:10279000404605F063F895E80A00AA68134401333F
:1027A0005B1A022BEDD94FF001080A40033248F0C2
:1027B000040368F3891345F82230033100202960AF
:1027C00004F08CFE0AF10203234005EB8303002191
:1027D0002548C3F80C9005F00BF880F310000AEBC5
:1027E0000803234005EB8303BFB204EA0A04033461
:1027F00047EA0040D86015F824301E481C490322DF
:1028000062F3C50305F8243035F8243068F38913E2
:1028100025F8243055F8242060F39F22134668F3EE
:1028200001036FF3820345F8242005F824300B7868
:10283000002B3FF405AFFFF787FA0028FBD1FFE636
:102840005146B0E704030020680300206E102734CF
:1028500084140200B80200206C140200D40400208A
:102860005070020080700200F01400200414020076
:10287000F4140020381402002DE9F04141F2100355
:10288000314DEC58064600205CB1E3681A7982426B
:1028900004D14DE0DB681A79824249D01B68002BD5
:1028A000F8D1F26841F210031071EA58002A46D0BC
:1028B000D468F26824681460EB58DB681E60234A11
:1028C000234B9B1ADB0838D0224D234C02EBC30E5E
:1028D0004FF0070CF768D37997F804802F688B4284
:1028E00008EB480828BF0B4603FA08F37B400CFAB4
:1028F00008F803EA08037B40C3F3C207C3F3821856
:10290000474538BF474603F00708474538BF4746A5
:10291000C3F34228474502F1080238BF47469645AF
:10292000678045F8043B04F10404D3D1BDE8F0818D
:1029300001300A28A8D14FF0FF30BDE8F081EE50F9
:10294000F3681A60BBE700BFD40400205070020097
:102950001871020004030020A002002038B541F2E3
:102960001001094B03F581525C58012515704CB1DB
:10297000E3685D71236820465B689847E3681C68DC
:10298000002CF5D138BD00BFD40400202DE9F0475C
:1029900084B01D460C9C002394F80C802373EB88B4
:1029A00081460E461746002B3BD1297A05290FD0C8
:1029B0006B7A002B3DD1404BA88853F821A0002111
:1029C000FFF782F9524603463C49204608F03CF99D
:1029D000062F0FD8DFE807F0484D535A046339003B
:1029E000F168B06896E80C000191009049462046D5
:1029F00008F02AF92B7A052B05D06B7A5BB93049A0
:102A0000204608F021F9204608F012F984F80C80DD
:102A100004B0BDE8F0872B4A2B49204608F014F992
:102A2000EDE7284A00922949294A204608F00CF986
:102A3000BBE7A888FFF772F9264B234953F82020FB
:102A4000204608F001F9297AB5E77069316996E8FE
:102A50000C000390B068F76802918DE88100494648
:102A6000204608F0F1F8C5E74946204608F0ECF8A2
:102A7000C0E732684946204608F0E6F8BAE749461A
:102A800096E80C00204608F0DFF8B3E7B16896E856
:102A90000C0020460091494608F0D6F8AAE7B06835
:102AA000F768316996E80C0002918DE8810049468B
:102AB000204608F0C9F89DE7781A02006C1A020057
:102AC00078130200641A0200C02702004C1A0200A8
:102AD000441A02000C1A0200082900D970472DE997
:102AE000F04F1D46904600232A7B2B7385B0B8F823
:102AF0000630039207460E46002B6BD198F808105B
:102B0000052911D098F80930002B6BD13C4BB8F84F
:102B1000040053F821400021FFF7D6F8224603466F
:102B20003849284608F090F8DFF8F8B0DFF8F89058
:102B30000024A642494628463ED93A5D013408F0B1
:102B400083F8082CF5D13049DFF8E090DFF8E0B0E9
:102B5000284608F079F8002411E017F804A01DF0C9
:102B6000F7F950445946437813F0970F14BF524673
:102B70002E222846013408F067F8082C08D0A64217
:102B800049462846E9D8013408F05EF8082CF6D109
:102B900098F80830052B02D098F80930A3B91B49E2
:102BA000284608F051F8284608F042F89DF80C3005
:102BB0002B7305B0BDE8F08F01345946284608F064
:102BC00043F8082CB5D1BEE7114A1249284608F04F
:102BD0003BF8E4E70E4A00920F49104A284608F0F5
:102BE00033F88BE7B8F80400FFF798F80C4B094965
:102BF00053F82020284608F027F898F8081085E7B1
:102C0000781A02006C1A02003C1A020078130200C3
:102C1000641A0200C02702004C1A0200441A020083
:102C20000C1A0200381A0200301A0200741A02004C
:102C3000401A0200074B1B5C1F2B8ABF064A4FF04D
:102C4000A04203F01F03D2F80405D840C04300F0AF
:102C500001007047C41A020000030050074B1B5CC0
:102C60001F2B86BF03F01F0305494FF0A04101222F
:102C700002FA03F3C1F80C35704700BFC41A020012
:102C800000030050074B1B5C1F2B86BF03F01F0384
:102C900005494FF0A041012202FA03F3C1F80835BB
:102CA000704700BFC41A0200000300504FF0A04359
:102CB0004FF480004FF400014FF08072C3F8080514
:102CC000C3F80815C3F80825704700BF4FF0A043AC
:102CD0004FF480004FF400014FF08072C3F80C05F0
:102CE000C3F80C15C3F80C25704700BF0A4B195CDC
:102CF0001F298ABF09484FF0A04001F01F01D0F8FA
:102D0000043501228A4022EA03011340C0F8081565
:102D1000C0F80C35704700BFC41A02000003005011
:102D2000202809D00C2809D0182809D019280CBF50
:102D300003204FF0FF30704700207047012070479C
:102D400002207047C20730B40FD483070BD54FF071
:102D5000A04211490C23C1F80037C2F83037C2F83D
:102D60006037C2F8643730BC70474FF0A04303228D
:102D70004FF480054FF400044FF08071C3F85827DA
:102D8000C3F85C27C3F86027C3F80855C3F80845A3
:102D9000C3F80815D9E700BF00030050434B19786A
:102DA000002900F081802DE9F04F8C4687B0002487
:102DB000012503E00134E4B2644560D23C4B27B204
:102DC0001E6816F837E0AEF1200305FA03F9394B17
:102DD000CEF12001D3E9002325FA01F149EA0109E6
:102DE00005FA0EF808EA020009EA0301014306EBBE
:102DF000C70BDFD02F4922EA080223EA09037046F5
:102E0000C1E900230BF0ECFD16F837E0AEF120022B
:102E100005FA02F201920199CEF12003C6B225FA19
:102E200003F3AEF12002194306FA02F30393224B97
:102E30000191D3E90023CDE9042305FA0EF30093B1
:102E4000CEF12001039B26FA01F10B43039306FA0E
:102E50000EF30293DDE90467DDE9002316401F400D
:102E600032463B46DDE90267BB4208BFB24209D0A9
:102E70000E4B013493F800C0E4B264459ED307B012
:102E8000BDE8F08FDBF80430002BF1D09BF8011087
:102E9000A1F10101B1FA81F14909091AB1FA81F1EF
:102EA000490970469847E3E7704700BF10170020B4
:102EB0004817002040170020381700202DE9F8435C
:102EC0000646204801F030FDD0B91F4F0123A6F17E
:102ED000200103FA01F5C6F12002D7E9000123FA27
:102EE00002F2154303FA06F404EA000205EA0103BC
:102EF000134307D020EA040421EA0505C7E9004589
:102F0000BDE8F88330460BF06BFD104ED6E9008922
:102F100098B148EA040849EA0509D7E900231443AF
:102F20001D43C6E90089C7E90045094B05481968F2
:102F30000022BDE8F84301F0A7BC28EA040829EA0A
:102F40000509EAE71817002040170020381700206D
:102F500014170020042A01D8072070472DE9F041FA
:102F600082B00F46054616460BF0D2FB002834D03F
:102F70001C4C1D4A1D4B1E481E49256017707C1EA7
:102F800000221E600023C0E90023C1E90023E4B24F
:102F9000EFB1DFF86C800027032601E0FF2C16D08C
:102FA00023B205EBC30215F8330093788DF8067051
:102FB000424601A98DF804608DF805300BF0B2FB94
:102FC000013CE4B20028E9D002B0BDE8F0810A4A31
:102FD0000A48002101F046FCF6E70BF047FB002809
:102FE000C6D0F1E748170020101700201417002062
:102FF00038170020401700209D2D0000C81A02003D
:10300000BD2E000070B5084D2B785BB1074E002433
:103010003368012113F834000BF066FC2B7801347F
:10302000A342F5D8002070BD1017002048170020DB
:1030300000B585B000230390194601AA44F20100AF
:103040000193029300F004F805B05DF804FB00BFA3
:1030500070B572B6FFF782FCFEF776FE0028FBD152
:10306000184E7388EBB9184A1268D2070CD5174C62
:10307000174D00BE012B07D9601BC008000440F0AB
:1030800002001449FFF72CFABFF34F8F1249134B7C
:10309000CA6802F4E0621343CB60BFF34F8F00BFF6
:1030A000FDE70A4C0A4D0E49601BC008000440F0C1
:1030B0000100FFF715FA044B1B6813F0010F73882A
:1030C000D8D0D6E7B8020020F0ED00E08070020012
:1030D00050700200D81A020000ED00E00400FA056A
:1030E000CC1A0200BAB1138899B10246014412F811
:1030F000010B5BBA9BB24340C3F30310434083EA26
:1031000003331BB2580100F4FF5043408A429BB284
:10311000EDD1184670474FF6FF73E5E7033080B2F4
:1031200040F2FD33984201D90920704730B4134B67
:103130001C783CB95A891D892A44024492B2B2F5DE
:10314000806F0FD31A7D12B1072030BC70479A8B65
:10315000DC8B2244024492B2B2F5806FF4D2012497
:10316000254600E02546AA002A4403EB82030C8092
:103170005A89104458810020E7E700BF8C170020CF
:10318000F0B5344C344D67886268BE00F31905EB26
:10319000830383B0596801F58050002A56D05388C4
:1031A000033302EB8302904234D91368013331D0E8
:1031B0005388033302EB830398422BD34FF6FF7CF3
:1031C000B2F804E0E64517D0B2F800E0BEF1000F17
:1031D00012D062605388214D2148AE88296803339C
:1031E00000259BB200959B0001EB8601032525700D
:1031F00008F086F803B0F0BD98420BD91A68013286
:103200001A4607D0B3F802E00EF1030E03EB8E036B
:103210009842D5D2F31905EB8303DB686BB10F4DF0
:103220000F4829680227052600230122AF80267057
:1032300003B0BDE8F04008F033B909480425012285
:10324000257003B0BDE8F04008F02AB901F108028A
:10325000A9E700BF701700208C1700204418002039
:10326000880300202DE9F041436888464BB13B4A72
:10327000D468A34205D31269934202D813F0030520
:103280004DD00023DFF8DCC0A8F800304FF0010E6D
:103290004FF6FF76DCF80470002207F580540837FB
:1032A000002A3AD05388033302EB83039C420DD8A3
:1032B0000EF10103A8F800E01FFA83FEBEF1030F30
:1032C0000CF1140CE6D10020BDE8F0811A6801323F
:1032D000EED05A88033203EB82029442E8D39D88F1
:1032E000B5420DD01D885DB19D6801688D421A46BA
:1032F000D6D11B4A4360138903810120BDE8F081C8
:10330000A242D5D2136801331346D1D05588033574
:1033100002EB8502A242CBD8E1E73B46C6E7104A62
:10332000048912899442ACD104689A689442A8D165
:103330000C484268934203D902F58052934207D366
:1033400082699342BFD902F580529342BBD20125D4
:10335000A8F800500120BDE8F08100BF88030020DC
:10336000701700208C1700202DE9F04FA04F89B076
:1033700004464FF6FF783E68002E00F00781327851
:10338000531E052B00F2B283DFE803F0313E3E1EF0
:103390001E03002C40F0B880DFF87CE29EF80C3071
:1033A000002B00F0A1819EF800308EF80C40013B0C
:1033B000062B00F29B83DFE813F0970281015F0187
:1033C0004701990370028401002C40F09D803379FD
:1033D000012B00F0B78103ADC0F09E81022B039456
:1033E000AC60EC602C6140F08783002032E0002C60
:1033F00040F0AB803379032B00F2BE80DFE813F09E
:10340000EC001001AF00CD00B6F81490002C00F0D5
:103410008380B37D022B40F263814FEA8904754DAE
:10342000F38804EB090205EB8202033311890B4494
:1034300013814C4405EB8404F3886289C3F57F4310
:1034400003ADFD33134400226381AA600392EA6056
:103450002A61012004903378023B042B0AD8DFE86C
:1034600003F0432F23034F0004238DF80C30F3881F
:10347000ADF81830604C04F1100654F8043B2846AF
:1034800003B19847A642F8D15C495D4800243C60EE
:1034900004F09EF901215B4804F0EEF900287FF466
:1034A0006AAF09B0BDE8F08F03238DF80C30F388C4
:1034B000ADF818303389ADF81A30F3680593D9E7C1
:1034C00002238DF80C303389ADF81830B388ADF88D
:1034D0001A30F3680593B37DA3F10603B3FA83F3BF
:1034E0005B098DF81C30C5E701238DF80C3033895A
:1034F000ADF81830B388ADF81A30F3680593B9E722
:1035000005238DF80C30B5E703AD0023AB600393C2
:10351000EB602B6101209DE74FEA8904354DB17DB9
:1035200004EB090305EB8303B3F808A05B6803EB26
:103530008A0A062900F21283DFE811F017018901D7
:103540009B01640177014B01480103AD2E4A002322
:1035500053600393AB60EB602B6101207AE72B4C47
:103560002B4821680023337102250122A58007F032
:1035700097FF002895D03E68234A03AD002353608F
:103580000393AB60EB602B610E2063E71B491C4883
:1035900004F0EEF806463860F1E61C4C1D4A21683E
:1035A0001B48144D4FF0000986F804900823CDF80D
:1035B000009007F0A5FE184B26685B88A18803EBF6
:1035C000830305EB830205F82390536823600223ED
:1035D00056601181A380CCE70C4B104A19680C4847
:1035E0000123002433710823009407F089FEC0E70B
:1035F000881700208C170020581700208017002003
:1036000024000020401800206817002044180020E3
:1036100088030020EC1A020070170020F41A020040
:10362000A74D2B78022B00F079822B7D022B00F026
:10363000888203ADA34B002001221A7003905860CA
:10364000A860E860286105E7BEF802309C4D03EBF6
:10365000830305EB8305EB68002B00F06E819A4B2A
:103660009A481968022205249A80002301228EF8C4
:10367000004007F015FF12E09348DEF8042084882C
:10368000016853889148033301EB840100240094BE
:103690009BB203249B008EF8004007F031FE002807
:1036A00040F08780FDE6884ADEF804109388498858
:1036B00003330B44022193808EF80010FFF760FD66
:1036C000EDE7814B824A1968804800230724009364
:1036D000CEF804308EF80040082307F011FEDEE734
:1036E000774D4FEA8904A4E69EF80030072B00F2DC
:1036F000618101A252F823F073390000B53900004E
:10370000B5390000A73600004D390000C33600006F
:10371000C3360000A93900000223337103946C60A2
:10372000AC60F368039328460DF10A01FFF79AFD98
:10373000002840F0C58103946C60AC60EC602C61A3
:103740000A2087E65F4B1B78002B40F04981214619
:10375000082260481CF058FC022003AD0023AB6037
:103760000393EB602B613E6874E602230022B3757D
:10377000042300925146F218544807F0C1FD002876
:103780003FF48FAEB17D0E20022908D904EB090267
:1037900005EB8202F388118903330B4413814C44F7
:1037A00005EB8405F3886A89C3F57F43FD33134431
:1037B0006B8103AD41F61D5200239042AB60039331
:1037C000EB602B6100F0C8813E6843E641F61D5076
:1037D000DCE7414B414AB3F800A051683B48404AFE
:1037E00000234FF0060E86F816E00093042307F03E
:1037F00087FD0028C6D10AEB8A0A05EB8A0501235A
:103800002B744EE6F388326930484FF0010E86F88B
:1038100016E04FF0000E0AF10C019B00CDF800E01D
:1038200007F06EFD0028ADD13BE62C4BB2691A6063
:103830001846002228495A60FFF714FD002894D149
:1038400003AD0390A860E86028610A2002E6032A1D
:1038500014BF062305230022B3750AF10401009268
:10386000042306F10802194807F04AFD002889D10F
:1038700017E633691548002B0CBF012303230022F0
:10388000B3750AF108010092042306F10C0207F057
:1038900037FD00287FF476AF03E6BEF80220084D1E
:1038A0009300134405EB83050624002369680D4A41
:1038B000009306488EF80040082307F021FDEEE64D
:1038C0008C1700206817002044180020880300206F
:1038D000F41A020054180020501800204C17002041
:1038E000E81A0200EC1A02009EF80A304BB19C4D17
:1038F000EB6800228EF80A201BB92A7C002A40F0CF
:1039000008819EF80B3053B1954D2B6A00228EF83A
:103910000B2023B995F82430002B40F0F98003AD3B
:103920000020A8608EF80000AEF80200CEF8040077
:103930000390E86028613E688CE504246968894842
:103940008EF80040012207F0ABFDA8E6BEF8022089
:10395000834D854C9300991805EB810120684E68D2
:10396000B4F804C0486002202660A1F808C0A08016
:1039700097E77B4DBEF808102B782A7DB3FA83F3C6
:10398000B2FA82F200205B095209013101248EF85B
:103990000A308EF80B20AEF80810AEF802008EF850
:1039A0000C008EF80040A1E701238EF800309EF84D
:1039B0000A309BE7013B062B00F2988001A252F8E7
:1039C00023F000BFE9380000BD3600007936000062
:1039D00049360000ED3A00009B380000C336000075
:1039E0006248B0F80490B9F1010F00F2AC805C4D70
:1039F00009EB890E05EB8E0E9EF80030BBB109F184
:103A000001091FFA89F9B9F1020FA0F804900EF12B
:103A1000140EF1D103AD0822002154481CF0F4FA31
:103A20000020A8600390E86028613E6812E5DEF897
:103A30000410036801F5805201F1080C002B65D0D9
:103A40005988033103EB8101914201D30460D6E729
:103A50000B680133FAD04B88033301EB83039342A5
:103A6000F4D8B1F804A0C24514D0B1F800B0BBF14D
:103A7000000F0FD0B6F806B00160D3450B46DDD17C
:103A8000002300933A4A3748042307F039FC80B1F9
:103A90000E2062E69A42D9D9196801311946D5D06B
:103AA000B3F802A00AF1030A03EB8A039342CDD8CC
:103AB000D7E709EB890905EB890501232B74F0E4AD
:103AC00004992B4A8B88F3800B8833812548009416
:103AD0000423BDF80A6007F013FC78B12C606C6019
:103AE000AC60EC602C613E680E20B3E403AD0023B3
:103AF000AB600393EB602B610F20ABE4184B06EB3C
:103B0000860603EB860601233374CAE461469BE70D
:103B10000123AEF80230FFF733FBC0E50023980025
:103B2000184405EB800300245968124A00940823C6
:103B300005F820400B4807F0E3FB00287FF41BAD9D
:103B4000AFE40123EBE703AD082221461CF05CFA49
:103B50000394AC60EC602C613E6846E40F2013E6F1
:103B60008C170020880300204418002054180020DF
:103B7000E81A0200EC1A02004068FFF7F5BB00BF2C
:103B800038B5084B1A68042A01D10C2038BD1D68CD
:103B9000054C02460121184644F8252003F05EFE3C
:103BA000002038BD4C180020581700202DE9F04F98
:103BB000B14C8BB0227800230693059307930893AA
:103BC000099372B1AD4C04F1100554F8043B05A8FB
:103BD00003B19847A542F8D1002528460BB0BDE8AF
:103BE000F08F201D02F0FF0603F064FE0746002858
:103BF000F2D14FF010234FF080525B691169526986
:103C0000DFF89882581C08BF02FB01F3C8F8103097
:103C10009B49A3F5405340460022C8F80C3007F0FA
:103C200035FB05460028D8D11C238C22954996489F
:103C3000DFF86CB203F046FDD8F80C30DFF8648290
:103C4000039603F5405200920322BC46A3F1040AF6
:103C500001922F46029523B1DAF804208B498A425B
:103C600064D003F6FC70524602E0904200F01C81E2
:103C700052F8041F0131F8D0854A07EB870102EBA7
:103C80008100019A4360013A92B20192804A032571
:103C9000013702F82150BFB203F58050009A8242EA
:103CA0000AF5805A0346D6D1019B029D012B40F2B2
:103CB00012815FFA8CF7022F00F00D81062F00F0C1
:103CC0000C81002F00F0078104A96F4803F012FD5A
:103CD0001C22044600211CF097F9002C00F00E81F4
:103CE0000123013F23700A2F09D8DFE807F01C08E1
:103CF0001C0819081908160616000223237104A9C6
:103D0000614803F025FD0121624803F099FD002878
:103D10007FF462AFFFF728FB5FE703232371EEE731
:103D200001232371EBE700232371E8E75A685A491E
:103D30008A4251D001318A4293D1039A72B1544AD6
:103D4000534E07EB870502EB850102200137D8F8B7
:103D5000002006F82500BFB24A6008810221C8F899
:103D60000030A8F804109A68013203F5805000F082
:103D7000C38003F108025388033302EB8305A84292
:103D800007D24FF48063A8F8043008234CEA030CF0
:103D900084E795884FF6FF76B5420AD0158845B17D
:103DA0009568DBF80060B54203D9CBF80050538822
:103DB00003330B4499B2A8F804105588033502EB7D
:103DC0008502904204D8022900F096800823DDE79E
:103DD00013680133CFD1F6E72D48BD00EA1900EB97
:103DE0008206002100F82210022273603281996855
:103DF000013103F5805010D00833598801F1030ECA
:103E000003EB8E0E70450DD2214B3D4403EB85052F
:103E100001224FF480632A742B810137BFB24CF02A
:103E2000020C3BE7B3F804E04FF6FF79CE451CD017
:103E3000B3F800E0BEF1000F17D0D3F808E0DBF8CC
:103E40000090CE4503D9CBF800E0598832890A4466
:103E5000033292B232815988033103EB81039842D5
:103E6000DBD919680131C8D1D7E74FF001023274AC
:103E700059883289EBE700BF6817002058170020E7
:103E8000C02C0200B417002024000020DEC0ADDEEC
:103E90008C17002040180020FE011EF1880300202E
:103EA0008417002044180020D8F8002042B3184995
:103EB000184E07EB870201EB82000221436001816B
:103EC000134877807D1C00F82210AFB24CF0010C33
:103ED00003F58050E2E60B257FE60F4D012200231B
:103EE000227005F11006636055F8043B05A803B184
:103EF0009847AE42F8D16FE6042347E708256CE601
:103F00000222A8F804200122C8F800300392DDE75D
:103F10008C170020701700205817002068B161B17D
:103F20002DE9F04182B00C4601A90546FFF79AF948
:103F300028B90A2002B0BDE8F081052070476E68FC
:103F4000002206213046B6F806807788FFF7CAF8C7
:103F500002AA791C22F8020D890006F10800FFF779
:103F6000C1F8804501D00D20E4E7BDF80430094ACE
:103F700003EB830302EB830303F10C00012103F045
:103F80006DFC26606B6801220C3363600020AA720E
:103F9000D0E700BF8C17002050B110B582B00DF1F2
:103FA00006010446FFF75EF920B90A2002B010BDF1
:103FB00005207047BDF80630094A03EB830302EB86
:103FC0008303DA6812B9062002B010BDA27A002A73
:103FD000F9D0DA680021013ADA600846A172E5E713
:103FE0008C1700202DE9F041434B82B01B78002252
:103FF000ADF8022023B90224204602B0BDE8F081CA
:1040000059B10A884FF6FF739A4201D04B8833B9F1
:104010000424204602B0BDE8F0810524ECE74B689B
:104020009B0701D00324E7E7B1F808800D46064658
:1040300069464046FFF772F804460028DCD101A922
:104040002E4803F057FB1C22074621461BF0DCFFDD
:10405000002F42D002233B70BDF80030BC75BB82FC
:104060006B683B610121264803F0F8FBF8602B8860
:104070003B816B88BB80A7F8068022460621381D4D
:10408000FFF730F80DF10808042128F8060D07F1B4
:104090000C004246FFF726F8A968ADF80200890037
:1040A00042466868FFF71EF801A903467881134865
:1040B000ADF8023003F04CFB36B17460FA68114B76
:1040C00032601B89B472338101210F4803F0B8FBC1
:1040D000002891D1FFF748F98EE7BDF800300B4A70
:1040E00003EB830302EB830208245389033BA3EB16
:1040F0000808A2F80A807FE7681700202400002043
:104100008417002070170020401800208C17002012
:104110002DE9F04383B050B1484B1B780022ADF835
:1041200002204BB90225284603B0BDE8F0830525DF
:10413000284603B0BDE8F0830029F8D00A884FF67E
:10414000FF739A4201D04B8823B90425284603B057
:10415000BDE8F0834B689B0701D00325E8E7B1F881
:10416000088004460E4640466946FEF7D7FF0546DE
:104170000028DDD101A9324803F0BCFA1C22074611
:1041800029461BF041FF002F49D003233B70BDF8A7
:104190000030BD75BB8273683B610121294803F083
:1041A0005DFBF86033883B817388BB804FF0040966
:1041B000A7F8068087F816902368BB612A46062177
:1041C00007EB0900FEF78EFF0DF10808494628F8B5
:1041D000060D07F10C004246FEF784FFB168ADF80A
:1041E0000200424689007068FEF77CFF0DEB090172
:1041F000034678811248ADF8023003F0A9FA6560F1
:10420000FA68114B22601B89A572238101210F4896
:1042100003F016FB00288BD1FFF7A6F888E7BDF85E
:1042200000300B4A03EB830302EB8302082553891A
:10423000033BA3EB0808A2F80A8079E7681700207F
:104240002400002084170020701700204018002050
:104250008C1700202DE9F043354C247814B9022046
:10426000BDE8F08362B35BB3B3F804C0BCF1010FE7
:1042700023D8304F0CEB8C0407EB84074FF6FF7EFE
:104280004FF000083C786CB91C687D6805F58056D5
:10429000002C4AD06588033504EB8504A64212D869
:1042A000C3F800800CF1010C1FFA8CFCBCF1020F6A
:1042B000A3F804C007F11407E4D10A20BDE8F08395
:1042C0000520BDE8F08325680135E9D06588033510
:1042D00004EB8505AE42E3D3B4F80490F14515D064
:1042E000B4F80090B9F1000F10D01C60A588854289
:1042F000CBD125888D42C8D1A168116019680E4BB9
:1043000051601B8913810020BDE8F083B542C7D2FC
:104310002C6801342C46C3D0B5F8029009F103098A
:1043200005EB8905AE42BBD3D6E705F10804B5E736
:10433000681700208C17002070170020F8B5204A5D
:10434000204B0025C2F84051C2F84451C2F84851F0
:10435000C2F84C51C2F80051C2F804511B6813B3A3
:104360001949D2F804450A68A41A1A6824F07F444F
:10437000A2422F4609D8197CDE69A41A154499B9BE
:104380001EB133461A68A242F5D91049104A0B787B
:1043900012789A420DD00F490F4A41F823504FF43A
:1043A0008013C2F80031F8BD1F745A6998699047AC
:1043B000E6E7531CDBB2022B08BF00230B70EAE7D1
:1043C000001001407C190020781900207519002088
:1043D000741900206C19002000E100E02DE9F04F75
:1043E000B74AB84913780978994285B033D0013378
:1043F000DBB2022B08BF0023B3481370B34A07682F
:10440000DFF8E08252F82320D8F80010BB1800240F
:1044100023F07F43036025462046A646A9B10B68DA
:10442000934200F27D81CC68C1F800E0D21A1844B2
:10443000CB6934B13E1826F07F46CD618C604E606A
:104440000D46194601240029E9D1002C40F0A58130
:104450004FF0010B05E0DFF88C820025D8F8001042
:10446000AB469B4B9B4FDFF8809243F001030093D8
:104470000E464FF0000A002D2DD0D5F804E0D5F8F7
:1044800008C02C46ED69904B93481B68AEEB0302C5
:1044900022F07F42824255D802EB0C0323600022B7
:1044A00001206260A260E2612074002E6BD030684F
:1044B000834261D9B64603E0106898424CD29646D2
:1044C000DEF81C201B1A002AF6D12360E261CEF828
:1044D0001C40002DD1D197F801C097F800E0F445B9
:1044E00071D0734603EB43030EF10100BA7807EB7A
:1044F000C3035FFA80FE7245187987F800E004BFB5
:104500004FF0000E87F800E002289A684CD003288C
:104510003DD00128E3D1107C0028E0D1D3F80CE095
:10452000C2F804E0D3F810C0C2F808C014465A69B3
:10453000E26099F800209B69A361002AA3D0606023
:104540008646A0E7A3EB0E0323F07F4363450AD220
:10455000ACEB03032360A2E7C01A10602360E261A2
:10456000CEF81C40B5E70023012223606360A360FE
:10457000E36122743EB13068C8F80040C31A33606A
:10458000E661264677E7C8F80040264673E7002E26
:10459000A5D0002200E01E46F3693274002BFAD148
:1045A000C8F800301E4696E74EB1B242344603D1F9
:1045B000BDE09A4260D01C46E369002BF9D100238C
:1045C0001374F4458DD1BAF1000F02D18E4200F080
:1045D0009D80002E00F0C5803B4B404A1C68D2F8FD
:1045E0000475DFF80881D6F800A098F800103B1B8E
:1045F00023F07F43DD1CA9B93949354B4FF4803096
:10460000C2F844030126C2F804034FF40030C1F895
:10461000800143F00103086016604FF43C60984746
:1046200088F80060AA452CBF04EB0A0363192B49E4
:1046300023F07F43C1F84035D1F80425D21BDB1BA2
:1046400022F07F4223F07F4303329A420ED9204B5F
:10465000D1F80425C1F8402543F001034FF43C6034
:1046600098471F4B4FF40032C3F80021002389F80C
:10467000003005B0BDE8F08FA24239D0D2F81CE07E
:104680001368C4F81CE0BEF1000F11D03046DEF80C
:1046900000402344CEF80030864209D0002397F82A
:1046A00000E097F801C0137406464FF0010A88E74E
:1046B000002397F800E097F801C0137481E700BF6A
:1046C0007419002075190020781900206C19002039
:1046D000101B02005C180020FEFF7F00001001404C
:1046E00000E100E07C190020681900206919002011
:1046F0001346F069C8F80000D8B1D3F81CE01B6875
:10470000C4F81CE0BEF1000FC1D1C5E7BBF1000F3A
:104710007FF45FAF002389F8003005B0BDE8F08F6B
:10472000002C3DD19B1A0B604FF0010B99E63346EC
:10473000DFE701931C4BDFF87CC003924FF0010EC2
:104740000291C3F808E0009BCCF8000089F800E073
:104750004FF43C609847D8F80000019B0299039AF7
:10476000CBE7114D114A124C4FF480334FF4003116
:104770000127C2F880103C43C5F848334FF43C6031
:10478000C5F808336F60A0470A4BAF604FF43C6038
:104790001E60A047084B1E7068E7C8F8001057E677
:1047A000C8F80010BEE700BF0010014000E100E0C3
:1047B000101B020078190020691900202DE9F84328
:1047C0001F4D204E204FDFF898804FF480334FF478
:1047D00000324FF001090024C6F8802047EA09079B
:1047E000C5F848334FF43C60C5F80833C5F8049069
:1047F000B847C5F808904FF43C60C8F80040B84787
:10480000124B13481349144A1C70144B04600C706B
:1048100014704FF48011C0220B2098701C705C70D3
:10482000C6F8801186F814233160C5F8084586F86B
:104830001123D5F80435C8F800302046BDE8F883C8
:104840000010014000E100E0101B02006919002087
:104850007C19002074190020751900205C180020B4
:1048600078190020074B9B780BB9082070473AB1A4
:1048700030B10368187C0028F7D159745A61704729
:10488000072070475C1800202DE9F041234CA378E5
:1048900013B90820BDE8F0810028FAD0042902D815
:1048A0000720BDE8F0814369002BF2D0437C054628
:1048B000012B4FF000000CBF8846804617460E467D
:1048C00002F004FE6378A07821785A1CD2B290429C
:1048D00008BF002291421AD003EB430304EBC30349
:1048E00001200F499D601871D1F80415D9601E612F
:1048F000C3F814809F610020627002F0EFFD094B45
:104900004FF48012C3F800210020BDE8F0810020A0
:1049100002F0E4FD0420BDE8F08100BF5C18002037
:104920000010014000E100E070B5184DAB780BB904
:10493000082070BD0028FBD04369002BF8D000246C
:1049400004740646204602F0C1FD6A78A8782978EA
:10495000531CDBB2984208BF2346994211D002EBA8
:10496000420205EBC20202212046966011716B7073
:1049700002F0B4FD064B4FF48012C3F8002120462C
:1049800070BD204602F0AAFD042070BD5C18002016
:1049900000E100E030B583B001A9124802F0AAFEA0
:1049A000F0B1114D044628682060002002F08EFD11
:1049B0000E4B0F481B88026801339B1AE3800021CD
:1049C00002F016FFA080002002F088FD01A9054832
:1049D00002F0BEFE074B1B6813B1014628469847FC
:1049E00003B030BD40000020341B0200201A00201C
:1049F0003C1B00208419002030B50378052B83B0C0
:104A0000054626D0002B31D12C4B1C683CB12368C5
:104A100068889B68984723685C68002CF7D1284C0D
:104A2000002002F053FD23687BB10121244802F0ED
:104A300015FF002002F052FD224B1B6813B12846DF
:104A400001219847236803B030BD1F4B6A881A8044
:104A5000EBE71E4BD3F88424D3F8803413F0FF0F18
:104A600004D11B4BD2B2052A08BF1D4601A9194823
:104A700002F040FE04460028E5D02B6803600020C9
:104A800002F024FD104B0E481B88026801339B1A6C
:104A9000E380002102F0ACFEA080002002F01EFDA9
:104AA00001A90C4802F054FE064B1B68002BCAD02B
:104AB00001462846984703B030BD00BF341B002094
:104AC0003C1B002084190020201A002000700240A6
:104AD000301B02004000002030B5012883B028D0F0
:104AE00030D3022823D101A91B4802F003FE04465B
:104AF000E8B11A4D28682060002002F0E7FC184B4E
:104B000018481B88026801339B1AE380002102F0D9
:104B10006FFEA080002002F0E1FC01A90E4802F027
:104B200017FE114B1B6813B101462846984703B086
:104B300030BD01A9084802F0DDFD04460028F6D08A
:104B40000A4DD7E701A9044802F0D4FD0446002825
:104B5000EDD0074DCEE700BF400000202C1B020027
:104B6000201A00203C1B002084190020281B020072
:104B7000241B02002DE9F04F87B006AE0025044645
:104B8000894692469B4646F8105DA84601E008F12A
:104B90000108626801235568214600223046A84773
:104BA0000028F4D18DF806000490B8F1000F28D049
:104BB0000546064662680123576821460DF1060244
:104BC00004A8B84762680123576821460DF107021F
:104BD00004A8B8479DF807304B454FF00002214626
:104BE00004A803D1AA4510D00135EDB29DF80630D6
:104BF0006768023B7F68B8479DF806301E44B045A1
:104C0000D8D8052007B0BDE8F08F109A9DF806307F
:104C100013608BF800308BF801906168023B4D689F
:104C20000BF102022146A847002007B0BDE8F08F33
:104C30002DE9F041082382B005464FF484723A49C9
:104C40003A4802F03FFD20B10324204602B0BDE8FF
:104C5000F081374808F040F904460028F5D1354A7C
:104C6000354B364E147021464822354834601C605E
:104C70001BF0CAF92146482232481BF0C5F9002D25
:104C80004CD095E80700304B83E80700002007F080
:104C90001FFA00283DD12D4C2A4F94F808C06568B2
:104CA000DFF89CE0032303FB0C4C0CF1090C04F12E
:104CB0000906664520D0FEB17378DBB1B278B21830
:104CC00018D003F1FF38114652FA88F8013A01E092
:104CD00001310FD012F8013F13F0800F03F00F03E2
:104CE00014BF0EEBC30307EBC30390451C60286899
:104CF0005860EDD10336DCE702A90B2301F8043D2F
:104D000012482B689847044600289ED008F07CF98A
:104D10009BE78528BFD0FEF78BF9BCE70A4B1D60E7
:104D20005D601D72B2E700BF241A00204000002021
:104D3000F9490000401B0020301B00202C1B0020E4
:104D400090190020D819002084190020701B02003F
:104D500010B508F045FA08B9082010BD08F048FA67
:104D600004460028F8D1044807F0C2F900B910BD84
:104D7000FEF75EF9204610BD201B020008F054B972
:104D800009F00EBA4FF0804303E0D3F83824D1077E
:104D90002BD5D3F838249207F7D530B583B001A9C5
:104DA000124802F0A7FC0446E8B1114D28682060C3
:104DB000002002F08BFB0F4B0F481B880268013369
:104DC0009B1AE380002102F013FDA080002002F076
:104DD00085FB01A9054802F0BBFC084B1B6813B119
:104DE00001462846984703B030BD70474000002078
:104DF000381B0200201A00203C1B002084190020D0
:104E000010B582B0822301A912488DF8003002F05B
:104E100071FCE8B1044600982060002002F056FBC7
:104E20000D4B0E481B88026801339B1AE38000215A
:104E300002F0DEFCA080002002F050FB01A9054832
:104E400002F086FC064B1B6813B101466846984782
:104E500002B010BD40000020201A00203C1B0020A2
:104E60008419002010B582B0832301A912488DF85F
:104E7000003002F03FFCE8B10446009820600020BA
:104E800002F024FB0D4B0E481B88026801339B1A6D
:104E9000E380002102F0ACFCA080002002F01EFBA9
:104EA00001A9054802F054FC064B1B6813B10146EA
:104EB0006846984702B010BD40000020201A00202C
:104EC0003C1B00208419002030B5012083B001F084
:104ED00061FA044610B9204603B030BD842301A90D
:104EE00013488DF8003002F005FC05460028F2D08A
:104EF00000982860002002F0E9FA0E4B0E481B884B
:104F0000026801339B1AEB80002102F071FCA8803B
:104F1000002002F0E3FA01A9054802F019FC074B52
:104F20001B68002BD7D0014668469847D3E700BFDF
:104F300040000020201A00203C1B00208419002083
:104F40002DE9F04F037881B08346852B00F2A280D3
:104F5000DFE813F08A02D801A3002A025902C80030
:104F6000D000A000EB00FE001101A000A000A000F6
:104F7000A0003301A000A000A000A000A000A0009D
:104F8000A000A000A000A000A000A000A000A00021
:104F9000A000A000A000A000A000A000A000A00011
:104FA000A000A000A000A000A000A000A000A00001
:104FB000A000A000A000A000A000A000A000A000F1
:104FC000A000A000A000A000A000A000A000A000E1
:104FD000A000A000A000A000A000A000A000A000D1
:104FE000A000A000A000A000A000A000A000A000C1
:104FF000A000A000A000A000A000A000A000A000B1
:10500000A000A000A000A000A000A000A000A000A0
:10501000A000A000A000A000A000A000A000A00090
:10502000A000A000A000A000A000A000A000A00080
:10503000A000A000A000A000A000A000A000A00070
:10504000A000A000A000A000A000A000A000A00060
:10505000A000A00024014701960186000C02C800B0
:10506000A14D2B78032B15D108F0FCFE90B12B78C5
:105070009A1ED2B2062A05D89C498A5C12B107F062
:1050800013F82B78022B00F02983082B00F02683DD
:1050900004232B7001B0BDE8F08F934D2B789A1E3E
:1050A000D2B2062A05D891498A5C12B106F0FCFFFB
:1050B0002B78022B01D0082B01D108F0D9F88C4BAA
:1050C0005B6803222A700BB102209847894B1C6849
:1050D00044B1636820461B685946984723681C689A
:1050E000002CF6D1844B93E80500594601B0BDE889
:1050F000F04F1047827813064CBF804B7E4B02F076
:105100000F0203EBC20393E80500594690470028BD
:10511000C0D09BF8020000F00F03013B062BB9D86A
:1051200001B0BDE8F04F08F0D1B9714B5B680BB12D
:10513000082098476F4B1C68002CABD06368204652
:105140001B685946984723681C68002CF6D1A1E7D4
:10515000674B5B680BB109209847664B1C68002CB5
:1051600098D0636820461B685946984723681C6896
:10517000002CF6D18EE75E4B5B680BB10A20984796
:105180005C4B1C68002C85D0636820461B68594620
:10519000984723681C68002CF6D17BE7524C237893
:1051A000062B00F06D82072B02D0052B7FF472AF27
:1051B00008F068F8022323706CE74D4B5B680BB175
:1051C0000F2098474B4B1C68002C3FF463AF63687B
:1051D00020461B685946984723681C68002CF6D166
:1051E00058E7454BDFF80C91454993E80500904797
:1051F000D9F80040002C00F06982414D63682046D8
:105200001B682946984723681C68002CF6D1DFF8F4
:10521000E0A0DAF804300BB10D209847D9F80070FF
:10522000002F00F0CF8197F80890B9F1000F00F03F
:10523000C4814FF00008444607F109057B68DB682C
:1052400013B12146384698473B7AA34240F2288161
:105250006E78002E00F0A8810024234632460AE032
:10526000AB782A190134D05C08F0E2FEE3B29E422A
:1052700040F29A816A789342F2D300231B78FFDED2
:10528000DFF87090D9F80070002F00F0578197F880
:1052900008A0BAF1000F00F04C814FF0000844461E
:1052A00007F109057B68DB6813B12146384698474A
:1052B0003B7AA34240F2F4806E78002E00F03081F9
:1052C0000024234632460AE0AB782A190134D05C28
:1052D00008F0AEFEE3B29E4240F222816A789A4222
:1052E000F2D800231B78FFDE401B0020181B0200B1
:1052F000841900202C1B0020D819002090190020B0
:105300003C1B0200DFF80C93D9F80070002F00F06E
:10531000D88097F808A0BAF1000F00F0CD804FF0C8
:105320000008444607F109057B68DB6813B1214694
:10533000384698473B7AA34240F2B2806E78002EFE
:1053400000F0B1800024234632460AE0AB782A19E7
:105350000134D05C08F06CFEE3B29E4240F2A380C0
:105360006A789A42F2D800231B78FFDEA44D2B788E
:10537000032B00F08F8107F045FF00283FF48AAE31
:105380002B789A1ED2B2062A00F29B819D498A5C34
:10539000002A00F09681022B00F06C81082B00F0AF
:1053A000698106232B7075E6954D2B78082B00F04C
:1053B00049819A1ED2B2062A40F25681924806F0DE
:1053C00045FE2B78022B00F04C81082B00F0498120
:1053D00005232B708D4B5B680BB1032098478C4BDA
:1053E000594693E8050090478A4B1C68002C3FF40F
:1053F00051AE636820461B685946984723681C686D
:10540000002CF6D146E6814B5B680BB10320984730
:105410007F4B814993E8050090477E4B1C684CB157
:105420007D4D636820461B682946984723681C68A1
:10543000002CF6D1724D2B78062B00F00081082B42
:105440000FD09A1ED2B2062A00F21F816D498A5CE3
:10545000002A00F01A81022B03D0082B01D007F09C
:1054600011FF02232B7015E6654B1B78032B00F010
:10547000F480082B00F0F180644B5B680BB10020D6
:105480009847664B1C68002C3FF404AE63682046C6
:105490001B685946984723685C68002CF6D1F9E5EB
:1054A00000235B78FFDE08F101085FFA88F45445B9
:1054B00005F10305FFF438AF3B681F68002F7FF448
:1054C00028AF4F4D00F046FC2B789A1ED2B2062A28
:1054D00000F2B0804B498A5C002A00F0AB80022BBE
:1054E00003D0082B01D007F0CDFE484B5B680222A9
:1054F0002A700BB101209847454B594693E80500A7
:105500009047D9F80040002C3FF4C4AD63682046B2
:105510001B685946984723681C68002CF6D1B9E5EA
:1055200008F101085FFA88F4A24505F103053FF68A
:10553000B9AE3B681F68002F7FF4A9AE304D08F06C
:1055400045FB2B789A1ED2B2062A6BD9022B00F0AB
:105550008180082B7ED0D9F8004000232B704CB1FD
:105560002F4E636820461B683146984723681C68A5
:10557000002CF6D1264B2A4993E805009047234B8F
:105580005B680BB10E2098472B78023BDBB2062BF1
:105590003FF680AD1B4AD35C002B3FF47BAD01B0DE
:1055A000BDE8F04F06F080BD08F101085FFA88F40D
:1055B000A14505F103053FF641AE3B681F68002F8A
:1055C0007FF431AE00F0D0FB144B1B68002B54D09D
:1055D00001200B4D07F0CCFD2B789A1ED2B2062A83
:1055E00006D9022B33D0082B31D001232B7051E583
:1055F00004498A5C002AF4D006F056FD2B78F0E7C7
:10560000401B0020181B02003800002084190020D5
:10561000D81900202C1B0020481B0200301B002042
:10562000401B020030498A5C002A8FD006F03CFD06
:105630002B788BE72D4806F009FD2B784FE70723E1
:105640002B7027E502232B7007F026FEC2E607F039
:105650000FFECAE707F00CFE7DE72548FFF770FC58
:105660000AE707F005FEB3E61F498A5C002A7FF4CB
:10567000A9AEA3E607F0FCFD93E69AF80800A8E7B8
:1056800007F000FE0823237004E5184806F0DEFC4E
:105690002B78E0E608F0E6FB00283FF46CAE2B78B0
:1056A0009A1ED2B2062A05D80F498A5C12B106F0BA
:1056B000FBFC2B78022B14D0082B12D004232B7068
:1056C00059E60A4806F0C2FC2B7864E6DFF824A00D
:1056D000DAF80430002B7FF49FAD73E707F0C8FDC4
:1056E000D6E407F0C5FDE9E7181B020038000020EA
:1056F000441B02008419002030B5274D83B0286870
:105700000023019300B38488A4B1C388B3F5006F6C
:105710003ABF5A1C92B2012204F1FF3428BF002381
:105720008480C28001A8ADF80630FFF709FC012093
:1057300003B030BDFFF704FC1849194802F048F8DF
:1057400001202C6003B030BD1449154802F010F858
:10575000044628600028D6D1124B1B680BB91846A6
:10576000E6E701F0B3FE104A0E481388B3F5006F68
:1057700035BF5C1C2346A4B2012401211480ADF87E
:10578000063002F087F8002001F0A8FE01A8FFF71C
:10579000D7FB0120CCE700BF441B0020801900206C
:1057A000400000203C1B0020201A00202DE9F04181
:1057B000077ADFF8E0E0DFF8E0804FF0030C0CFB45
:1057C000070C00F109040CF1090C21468C4582B04C
:1057D00020D001B34E780022B24218D08B78134407
:1057E000D94214D0CB5C03F00F051B0608D45EF839
:1057F00035300132002BEFD0112002B0BDE8F0812E
:1058000058F835300132002BF6D1B242E6D10331DF
:105810008C45DED100211F4D1F4ECAB2BA4229D29B
:1058200002EB4202A21825D053780BB39378D31819
:1058300018BF4FF0010E05D11AE093787344D318C6
:1058400015D0BE461B7813F0800F03F00F0314BF72
:1058500006EBC30305EBC303186047683F685F604E
:1058600092F801C00EF10103F445DFB2E5D8077AE2
:105870000131D2E7094A13681BB11A681368002B7B
:10588000FBD102A910600B2201F8042D43681B68AC
:105890009847B2E7D8190020901900202C1B00204F
:1058A000084B1B681BB11B685B68002BFBD1064AC9
:1058B000136823B11A685368002BFBD104321060BF
:1058C00000207047341B0020301B00200A4A136858
:1058D00043B1984202D108E0834205D01A68536868
:1058E000002BF9D105207047043203685B68136010
:1058F0000368002058607047301B0020024A13786C
:105900000133137000207047381B0020024A1378BF
:10591000013B137000207047381B0020024B1878A1
:10592000003018BF01207047381B002000F00F0323
:10593000072B10B5044604D807F056FE204607F0A2
:10594000D1FD2046BDE8104008F0E8B808F070BB73
:10595000014B1868704700BF2C1B002070B4114B1E
:105960001E68A6B1357A75B1737A834206F10902D1
:1059700010D0002303E012F8034F84420BD0013310
:10598000DBB29D42F7D133681E68002EEAD1304663
:1059900070BC704700230029F9D030460B7070BCF2
:1059A000704700BF2C1B0020436811461B68184736
:1059B00000F00F03082B01D91020704702064CBFDE
:1059C000044A054A02EBC30318680028F4D0436870
:1059D0001B68184790190020D819002038B5094BCA
:1059E0001C6805461CB90AE023681C683CB1636862
:1059F00029461B68204698470628F5D038BD062062
:105A000038BD00BF2C1B002038B50D46044607F0FA
:105A100059FC08B9082038BD044B1B78022BF9D17A
:105A200029462046BDE8384007F05CBC401B0020FA
:105A300038B50D46044607F045FC08B9082038BDC6
:105A4000044B1B78022BF9D129462046BDE838408B
:105A500007F0DEBC401B0020F8B543689B68044695
:105A60000E4615461BB19847062800D0F8BD0DB16B
:105A70000720F8BD237AB34222D9093406EB460643
:105A800034446778F7B12B463A4614E0A37862199C
:105A9000D65C06F00F03072B05D8304607F0A4FDAF
:105AA000304607F01FFD3046013508F037F8EBB2FD
:105AB0009F4207D962789A42E8D800231B78FFDE1C
:105AC0006B78FFDE0020F8BD43681B6903B11847FF
:105AD000184670472DE9F0472A4BD3F80080B8F1FB
:105AE000000F4DD098F808A0BAF1000F3FD0002762
:105AF0003C4608F109050BE0002221464046984744
:105B000006280AD00137FCB2A24505F103052ED9BB
:105B1000D8F804309B68002BEED198F80830A342E7
:105B200002D800235B78FFDE95F80190B9F1000FF1
:105B3000E8D0002423464A4614E0AB782A19D65C04
:105B400006F00F03072B05D8304607F04DFD304611
:105B500007F0C8FC3046013407F0E0FFE3B2994596
:105B6000D0D96A789A42E8D800231B78FFDED8F8AB
:105B70000030D3F80080B8F1000FB3D1BDE8F08752
:105B8000BDE8F0872C1B00202DE9F8431F4B1F6850
:105B9000002F38D097F80890B9F1000F2AD04FF0B5
:105BA0000008444607F109057B68DB6813B121460C
:105BB000384698473B7AA34222D96E7896B10024A2
:105BC0002346324609E0AB782A190134D05C08F04C
:105BD0002FFAE3B29E4205D96A789A42F3D800239D
:105BE0001B78FFDE08F101085FFA88F4A14505F192
:105BF0000305D9D83B681F68002FCBD1BDE8F883D7
:105C000000235B78FFDEBDE8F88300BF2C1B00207B
:105C1000002070472DE9F04F4B6887B0002B7DD0F6
:105C20000C4615460392029007F04CFCE668AE4223
:105C300028BF2E468346002E00F087804FF0000AD2
:105C40005746D1464FF00108CDF804A0A36861681B
:105C5000B3429A4628BFB24601B352460BEB070047
:105C60001AF0ADF9A268E368C4F80490A2EB0A0246
:105C7000A3EB0A03A6EB0A065744A260E3607AB1DD
:105C8000002B08BF4FF00008002EDFD1029AC2F8A7
:105C900000B05760404607B0BDE8F08F2BBBE3680B
:105CA000019A22B95BB99846002ECFD1EEE722685F
:105CB00012681268226001220192002BF3D0216841
:105CC000002939D0CDF8109003E0A3682168013392
:105CD000A3604B6800225D6804A80123A847002840
:105CE000F3D12061002EB1D1D0E72046534650F8C1
:105CF000101B4A6855680BEB0702A847A268E368C7
:105D0000A2EB0A02A3EB0A03A6EB0A065744A26021
:105D1000E360002ACBD001220192B1E70B681B6837
:105D20001B68002B7FF47CAF8B68002B7FF478AF6F
:105D3000036043609846ADE76160002FA6D0039BE7
:105D4000BB4288BF4FF00008A0E737464FF001087C
:105D50009CE700BF08B50020FFF7E8FD8020BDE804
:105D60000840FFF7E3BD00BF08B50020FFF7EEFDD8
:105D70008020BDE80840FFF7E9BD00BF70B5C388CB
:105D800093421D4628BF1546934284B00E461FD845
:105D90000022002003920196029501F097FB01A9D1
:105DA0008020FFF731FE044628B1002001F096FB69
:105DB000204604B070BD07F089FC802818BF10246D
:105DC000F3D1094A094B92E8030083E80300ECE7AA
:105DD0008020144607F066FAB4FBF0F303FB104290
:105DE000B2FA82F25209D4E7B81B0200741B0020F9
:105DF0002DE9F04F0B78062B87B07CD010D90D2BF6
:105E000069D02AD80B2B06D00C2B2FD1AA4A137895
:105E1000002B40F08E800024204607B0BDE8F08FB4
:105E2000022BF8D045D9032B25D0052B1ED10DF11F
:105E30000D008DF80C3007F0E7FB9DF80D209F4D0D
:105E4000002102F01F032960032B00F2B880DFE875
:105E500013F0BA00D300AE009F000E2B19D0852B93
:105E600004D1954B1A78032A00F0F88006242046C6
:105E700007B0BDE8F08F924801F038FD0028CAD085
:105E8000904B01221A60BFF36F8FBFF34F8F002436
:105E9000C2E7894B1A78012ABDD08B498B480A7812
:105EA000012422F002021C700A700024FFF748F857
:105EB000B2E7012BDAD1804B1A78032AD6D0824977
:105EC00082480A78032422F002021C700A70062419
:105ED000FFF736F8A0E74FF08043D3F8383413F0DB
:105EE000010F754B1A7821D0022A94D07649774851
:105EF0000A780224D5E7C87803280D46B6D06F4E3D
:105F00003368002B00F09C80002232607168984753
:105F10000446002854D13368002B00F09380AB78FE
:105F2000002B7FF478AF07F095FB75E7012AB4D119
:105F300071E7654C65482178002321F0020121704A
:105F400013701C46FEF7FCFF66E79DF80E1006294D
:105F500000F0F480082900F0DF80C9B95C4C02220F
:105F600020461AF051F8584A23781278900743F0E7
:105F7000010148BF43F0030321700DF10D0048BF3C
:105F8000237002225249FFF7F9FE0446062C03D182
:105F900003A8FFF723FD044694B92C68002C5AD0BF
:105FA00007F094FB044600287FF435AFBBE79DF86B
:105FB0001100010759D112F0600F00F08F80062404
:105FC00007F07AFB28E7C2F34114002CE0D1D20994
:105FD000BBD19DF80E30032B50D0092B5CD0012B88
:105FE000D6D1BDF80F30012BD2D1FFF797FC002896
:105FF00040F068810F24E3E701A99DF81100FFF745
:10600000ADFC064678B303AA9DF80410FFF7CCFC5C
:1060100006280446C0D19DF80D3013F0600FCFD193
:10602000254A9DF804101278DF099DF80E3040F0E3
:10603000C2800B2BC4D1052A00F04A810824BFE797
:106040000E24BDE7234B1B68082B04D1224B1B6891
:10605000002B3FF4E0AE07F025FBDDE61A491B48B4
:106060000A7804242FE71024AAE703A9FFF7A0FC6D
:106070000628044690D19DF80D209CE7BDF80F300E
:10608000012B85D1FFF74AFC0028B3D00E4A1378C4
:1060900043F00203137080E7074C2378043B012B85
:1060A000CCD89DF80F30002B00F03581012B00F08B
:1060B0002681072484E700BF541B0020741B0020A6
:1060C0007C1B00205C700240701B0020801B0200C3
:1060D000801B002030010010340100109DF80E20BC
:1060E000954B9DF811401B78012A3DD052D3032ACD
:1060F0007FF465AF04F00F02072A3FF660AFBDF8EA
:106100000F1000297FF45BAF052B01D0002A95D139
:10611000204607F0DBF940E787490978052900F0B8
:10612000CE8004297FF434AF844A14700DF10D0041
:1061300001228249FFF722FE044627E79DF810203E
:10614000022A62D0032A4AD0012A7FF421AFBDF887
:106150001330002B3FF421AF0DF10D0012227849CE
:10616000FFF70CFE044611E704F00F02072A3FF682
:1061700026AFBDF80F1000297FF421AF052B02D008
:10618000002A7FF45BAF204607F02EFA204607F086
:10619000A9F902E7052B02D023077FF44FAF204671
:1061A00007F000FA6549022208800DF10D00FFF7A3
:1061B000E5FD0446F0E6002B74D00A2B7FF400AF17
:1061C000052A7FF43BAF3046FFF77EFC5B493A4639
:1061D00008700DF10D00FFF7D1FD0446DCE6BDF8B7
:1061E0001330002B3FF4D9AEBDF811109DF80F000D
:1061F00001F038F9014600283FF4CAAE0DF10D0058
:106200000A78FFF7BBFD0446C0E6BDF81320002A5C
:106210003FF4C3AE092A28BF09229146FFF798FB35
:10622000A34606464FF0090AAEB1CDF804B00027E8
:1062300000E0013772680123D2F804803146002261
:1062400001A8C0470028F4D1337A32682344166885
:10625000BA44DCB2E8E7394E3A4930464A4619F0CA
:10626000AEFE3471A6F802A0FFF758FB18B1F3791F
:1062700043F02003F371FFF76BFB334BBDF81320A2
:10628000186000205E60C3F80890DA6001F01EF923
:106290002E498020FFF7CCFB044628B3002001F0F4
:1062A0001DF973E6052A7FF4C9AE244C0DF10D00EB
:1062B000214623800222FFF761FD04466CE61F4B56
:1062C0001A7033E7224A137823F00203137064E64E
:1062D000BDF80F30FF2B3FF6ECAE30469DF80F2097
:1062E000FFF7BAFB044657E607F0F0F9802805BF30
:1062F000184B93E80300102485E80300CEE7FFF76E
:10630000E9FB2378052B3FF448AE052312482370A0
:10631000FEF716FE41E6FFF737FC2378042B3FF427
:106320003CAE0B4A0C481378042123F0020313708F
:106330002170FEF705FE30E6541B0020801B002074
:10634000A41B0200841B0200581B0020D01B02006B
:10635000701B0020B81B0200801B020038B50446E9
:106360000D4607F0B3F9A04202D01023184638BDFD
:1063700095E80300024A82E803000023184638BD6E
:10638000741B002008B1402303600148704700BF20
:10639000801B0020034B1B7843FA00F000F0010043
:1063A000704700BF701B00202DE9F0411D461B788F
:1063B00084B006460F4614460E2B00F23381DFE808
:1063C00013F01900A200B900BF003101CA00E400B7
:1063D0003101310131013101F80018012B010F00A9
:1063E00020466FF0020101F01DFA0025284604B096
:1063F000BDE8F08194F82830002BF6D0698840F28F
:10640000FF73994200F0818194F808E0D4F804C049
:106410004FEA8E0EBCF1000F40F01682AA4B606965
:10642000A3FB0E820844D2080232B0FBFEF80EFB3A
:1064300018009042C0F0618294F82920002AD4D03C
:10644000627A60689200002840F0FE81A3FB020C93
:10645000A06901EB000E4FEADC000230BEFBF2FC4B
:1064600002FB1CE28242C0F04C82A07A626880008B
:10647000002A40F0E981E269A3FB00E30A44DB085B
:106480000233B2FBF0FE00FB1E229A42C0F03B82B8
:10649000E07A63688000002B40F0D681226AA3F185
:1064A0003333A3FB00E31144DB080233B1FBF0F20A
:1064B00000FB1211994298D2032194F8243023B1A1
:1064C0006B886361002384F8243094F8253023B16D
:1064D0006B88A361002384F8253094F8263023B11B
:1064E0006B88E361002384F8263094F8273023B1C9
:1064F0006B882362002384F827307B6930469B69D0
:106500009847054672E76FF00801204601F08AF9C6
:1065100000254FF400630122227325726572A57273
:10652000E57284F8295084F828506361A361E3611F
:1065300023625BE72046042101F066F9002555E758
:1065400020466FF0040101F06DF97B6930469B68CD
:10655000984705464AE76B78DA0968D15B09012B51
:1065600060D1AA780A2A00F083810B2A00F0738197
:10657000092A57D12B79022B54D14B695B68002B28
:1065800050D029469847054630E795F90230002B50
:1065900068DB4B69DB68002B44D0EA782AB98A694A
:1065A0001AB1022190477B69DB683046984705465F
:1065B0001CE7FFF775F9054600287FF417AF304652
:1065C000FFF79CF9054600287FF410AF4FF40063F5
:1065D00020726072A072E07284F8290084F82800AA
:1065E0006361A361E36123622046012101F00CF99C
:1065F000FCE6FFF76BF9054600287FF4F7AE30465E
:10660000FFF784F9054600287FF4F0AE20466FF0CE
:10661000010101F007F9E9E62046022101F0F4F852
:106620000025E3E60625284604B0BDE8F081C3F363
:106630004118B8F1000F49D0B8F1010FF2D1AB7891
:10664000022B00F04781032B00F03C81012BE9D1A4
:106650002B79013B012BE5D84B6929461B689847EC
:106660000546C3E6EB781BB98B690BB1032198474C
:106670006368002B40F0E88094F82830002B3FF44A
:1066800064AF94F82930002B00F013816369B3F5EF
:10669000006F04BF012384F82430A369B3F5006FB1
:1066A00004BF012384F82530E369B3F5006F04BF0C
:1066B000012384F82630236AB3F5006F7FF495AE8A
:1066C000012384F8273090E6CDCCCCCC03F01F0317
:1066D000012BA7D1AB78062BA4D103A8CDF8088055
:1066E000FFF750FE044602A8EA7829790090234675
:1066F0003046FEF73FFA052800F00B81681C214662
:10670000029AFFF73BFB054670E66369207AB3F512
:10671000006F4FEA800007D003F2FF73B3FBF0F283
:1067200000FB1233013363616168002940F08C8003
:10673000814B6269A3FB00E302F2FF72DB080233C4
:10674000B2FBF0FE00FB1E229A4294F829306ED371
:10675000002B3FF44AAEA269607AB2F5006F4FEAAF
:10676000800007D002F2FF72B2FBF0F100FB1122B1
:106770000132A2616268002A66D1A2F13332A169B6
:10678000A2FB00E201F2FF71D2080232B1FBF0FE7F
:1067900000FB1E119142C0F0BA80002B3FF425AEE1
:1067A000E269A07AB2F5006F4FEA800007D002F2EA
:1067B000FF72B2FBF0F100FB11220132E26162686C
:1067C000002A41D1A2F13332E169A2FB00E201F2D9
:1067D000FF71D2080232B1FBF0FE00FB1E119142A4
:1067E000C0F09380002B3FF400AE226AE07AB2F54D
:1067F000006F4FEA800007D002F2FF72B2FBF0F1A7
:1068000000FB1122013222626268EAB94A4A216A17
:10681000A2FB00E201F2FF71D2080232B1FBF0FEEE
:1068200000FB1E11914238BF0321BFF4DEAD002BE7
:106830007FF443AE94F82420002A3FF45EAE6A88C9
:10684000626184F8243058E620466FF0080100F0B9
:10685000E9FF0025CAE5B5F80310003118BF012192
:106860002173BB69002B3FF4C0AD98470025BDE5FF
:10687000EA78287922444FF400611072EA7804EB38
:10688000820251612A7972BB637A002B7FF4ADAD2D
:10689000A37A002B7FF4A9ADE37A002B7FF4A5AD9A
:1068A000257A84F82930002D7FF49FAD84F8285094
:1068B0009CE56369B3F5006F7FF497AD012384F81D
:1068C000243092E5681C424604F10C01FFF756FAA9
:1068D00005468BE5E9780831681C42462144FFF7FC
:1068E0004DFA054682E584F82830EA78002A3FF41C
:1068F0007CAD84F82930002578E5614694F829308C
:1069000095E70121D9E50221D7E502218FE7012191
:106910008DE77B69E9781B69304698477B69E978A0
:106920005B69044642463046984722460146681C49
:10693000FFF724FA054659E5CDCCCCCCC0687047AA
:10694000036953F821301868704700BF036953F892
:106950002130986810447047F0B50468D44E0D7A21
:10696000357040F2F117BC4200F08482B4F5F97F33
:106970001DD340F20A25AC4200F0A68139D8B4F507
:10698000FA7F00F0C98140F2E580B4F5007F00F0A5
:10699000638240F20125AC4200F0EF8140F2FD1528
:1069A000AC4200F04182002303601846F0BDB4F50C
:1069B000F47F00F0678240D940F2EB15AC4200F062
:1069C000B281B4F5F67FC0F0B58040F2EF15AC426D
:1069D00000F02282B4F5F87F80F0C081B4F5F67F34
:1069E000E1D1002A00F05D83057901274FF0000E08
:1069F000FCE0B4F5047F00F09E8161D940F21225DD
:106A0000AC4200F02F82C0F0A18140F21325AC42CD
:106A1000C9D1A84F002A00F0B28290F804C03D7896
:106A200001244FF0000E02F80EC0DFF898E20135A5
:106A3000EDB29EF800E03D7024E140F2E117BC4267
:106A400000F0F981B4F5F17F80F09480002C00F023
:106A5000A581B4F5F07FA6D101250024002A00F01D
:106A6000148307791755AB424FF00404047140F2C8
:106A700077826F1C54550D7A8F4C2478AC4280F08D
:106A80009D8104EB440501F10904DFF830E214F8BC
:106A900005C080F804C02C44BB42CEF8004040F250
:106AA00049827C1C002A00F091820579D555A342C9
:106AB0004FF00005057140F22E8204F1010E6AE0EC
:106AC00040F20B25AC4200F0518140F20F25AC4260
:106AD0007FF469AF01240025002A00F05382077972
